{
	"contracts/FundMe.sol": {
		"FundMe": {
			"abi": [
				{
					"inputs": [],
					"name": "f",
					"outputs": [
						{
							"internalType": "uint256",
							"name": "",
							"type": "uint256"
						}
					],
					"stateMutability": "view",
					"type": "function"
				},
				{
					"inputs": [],
					"name": "fun",
					"outputs": [
						{
							"internalType": "uint256",
							"name": "",
							"type": "uint256"
						}
					],
					"stateMutability": "view",
					"type": "function"
				},
				{
					"inputs": [],
					"name": "fund",
					"outputs": [],
					"stateMutability": "payable",
					"type": "function"
				},
				{
					"inputs": [],
					"name": "getdecimals",
					"outputs": [
						{
							"internalType": "uint256",
							"name": "",
							"type": "uint256"
						}
					],
					"stateMutability": "view",
					"type": "function"
				},
				{
					"inputs": [],
					"name": "getprice",
					"outputs": [],
					"stateMutability": "nonpayable",
					"type": "function"
				}
			],
			"devdoc": {
				"kind": "dev",
				"methods": {},
				"version": 1
			},
			"evm": {
				"assembly": "    /* \"contracts/FundMe.sol\":325:989  contract FundMe{... */\n  mstore(0x40, 0x80)\n  callvalue\n  dup1\n  iszero\n  tag_1\n  jumpi\n  0x00\n  dup1\n  revert\ntag_1:\n  pop\n  dataSize(sub_0)\n  dup1\n  dataOffset(sub_0)\n  0x00\n  codecopy\n  0x00\n  return\nstop\n\nsub_0: assembly {\n        /* \"contracts/FundMe.sol\":325:989  contract FundMe{... */\n      mstore(0x40, 0x80)\n      jumpi(tag_1, lt(calldatasize, 0x04))\n      shr(0xe0, calldataload(0x00))\n      dup1\n      0x0fcb5984\n      eq\n      tag_2\n      jumpi\n      dup1\n      0x26121ff0\n      eq\n      tag_3\n      jumpi\n      dup1\n      0x946644cd\n      eq\n      tag_4\n      jumpi\n      dup1\n      0xb20e5a79\n      eq\n      tag_5\n      jumpi\n      dup1\n      0xb60d4288\n      eq\n      tag_6\n      jumpi\n    tag_1:\n      0x00\n      dup1\n      revert\n        /* \"contracts/FundMe.sol\":661:775  function getprice() public{... */\n    tag_2:\n      callvalue\n      dup1\n      iszero\n      tag_7\n      jumpi\n      0x00\n      dup1\n      revert\n    tag_7:\n      pop\n      tag_8\n      tag_9\n      jump\t// in\n    tag_8:\n      stop\n        /* \"contracts/FundMe.sol\":372:388  uint256 public f */\n    tag_3:\n      callvalue\n      dup1\n      iszero\n      tag_10\n      jumpi\n      0x00\n      dup1\n      revert\n    tag_10:\n      pop\n      tag_11\n      tag_12\n      jump\t// in\n    tag_11:\n      mload(0x40)\n      tag_13\n      swap2\n      swap1\n      tag_14\n      jump\t// in\n    tag_13:\n      mload(0x40)\n      dup1\n      swap2\n      sub\n      swap1\n      return\n        /* \"contracts/FundMe.sol\":347:365  uint256 public fun */\n    tag_4:\n      callvalue\n      dup1\n      iszero\n      tag_15\n      jumpi\n      0x00\n      dup1\n      revert\n    tag_15:\n      pop\n      tag_16\n      tag_17\n      jump\t// in\n    tag_16:\n      mload(0x40)\n      tag_18\n      swap2\n      swap1\n      tag_14\n      jump\t// in\n    tag_18:\n      mload(0x40)\n      dup1\n      swap2\n      sub\n      swap1\n      return\n        /* \"contracts/FundMe.sol\":781:986  function getdecimals() public view returns(uint256){... */\n    tag_5:\n      callvalue\n      dup1\n      iszero\n      tag_19\n      jumpi\n      0x00\n      dup1\n      revert\n    tag_19:\n      pop\n      tag_20\n      tag_21\n      jump\t// in\n    tag_20:\n      mload(0x40)\n      tag_22\n      swap2\n      swap1\n      tag_14\n      jump\t// in\n    tag_22:\n      mload(0x40)\n      dup1\n      swap2\n      sub\n      swap1\n      return\n        /* \"contracts/FundMe.sol\":395:655  function fund() public payable{... */\n    tag_6:\n      tag_23\n      tag_24\n      jump\t// in\n    tag_23:\n      stop\n        /* \"contracts/FundMe.sol\":661:775  function getprice() public{... */\n    tag_9:\n      jump\t// out\n        /* \"contracts/FundMe.sol\":372:388  uint256 public f */\n    tag_12:\n      sload(0x01)\n      dup2\n      jump\t// out\n        /* \"contracts/FundMe.sol\":347:365  uint256 public fun */\n    tag_17:\n      sload(0x00)\n      dup2\n      jump\t// out\n        /* \"contracts/FundMe.sol\":781:986  function getdecimals() public view returns(uint256){... */\n    tag_21:\n        /* \"contracts/FundMe.sol\":824:831  uint256 */\n      0x00\n        /* \"contracts/FundMe.sol\":843:874  AggregatorV3Interface pricefeed */\n      dup1\n        /* \"contracts/FundMe.sol\":897:939  0xD4a33860578De61DBAbDc8BFdb98FD742fA7028e */\n      0xd4a33860578de61dbabdc8bfdb98fd742fa7028e\n        /* \"contracts/FundMe.sol\":843:940  AggregatorV3Interface pricefeed=AggregatorV3Interface(0xD4a33860578De61DBAbDc8BFdb98FD742fA7028e) */\n      swap1\n      pop\n        /* \"contracts/FundMe.sol\":958:967  pricefeed */\n      dup1\n        /* \"contracts/FundMe.sol\":958:976  pricefeed.decimals */\n      0xffffffffffffffffffffffffffffffffffffffff\n      and\n      0x313ce567\n        /* \"contracts/FundMe.sol\":958:978  pricefeed.decimals() */\n      mload(0x40)\n      dup2\n      0xffffffff\n      and\n      0xe0\n      shl\n      dup2\n      mstore\n      0x04\n      add\n      0x20\n      mload(0x40)\n      dup1\n      dup4\n      sub\n      dup2\n      dup7\n      dup1\n      extcodesize\n      iszero\n      dup1\n      iszero\n      tag_27\n      jumpi\n      0x00\n      dup1\n      revert\n    tag_27:\n      pop\n      gas\n      staticcall\n      iszero\n      dup1\n      iszero\n      tag_29\n      jumpi\n      returndatasize\n      0x00\n      dup1\n      returndatacopy\n      revert(0x00, returndatasize)\n    tag_29:\n      pop\n      pop\n      pop\n      pop\n      mload(0x40)\n      returndatasize\n      not(0x1f)\n      0x1f\n      dup3\n      add\n      and\n      dup3\n      add\n      dup1\n      0x40\n      mstore\n      pop\n      dup2\n      add\n      swap1\n      tag_30\n      swap2\n      swap1\n      tag_31\n      jump\t// in\n    tag_30:\n        /* \"contracts/FundMe.sol\":951:978  return pricefeed.decimals() */\n      0xff\n      and\n      swap2\n      pop\n      pop\n        /* \"contracts/FundMe.sol\":781:986  function getdecimals() public view returns(uint256){... */\n      swap1\n      jump\t// out\n        /* \"contracts/FundMe.sol\":395:655  function fund() public payable{... */\n    tag_24:\n        /* \"contracts/FundMe.sol\":519:523  1e18 */\n      0x0de0b6b3a7640000\n        /* \"contracts/FundMe.sol\":508:517  msg.value */\n      callvalue\n        /* \"contracts/FundMe.sol\":508:523  msg.value>=1e18 */\n      lt\n      iszero\n        /* \"contracts/FundMe.sol\":500:542  require(msg.value>=1e18,\"NEED MORE MONEY\") */\n      tag_33\n      jumpi\n      mload(0x40)\n      0x08c379a000000000000000000000000000000000000000000000000000000000\n      dup2\n      mstore\n      0x04\n      add\n      tag_34\n      swap1\n      tag_35\n      jump\t// in\n    tag_34:\n      mload(0x40)\n      dup1\n      swap2\n      sub\n      swap1\n      revert\n    tag_33:\n        /* \"contracts/FundMe.sol\":395:655  function fund() public payable{... */\n      jump\t// out\n        /* \"#utility.yul\":7:84   */\n    tag_36:\n        /* \"#utility.yul\":44:51   */\n      0x00\n        /* \"#utility.yul\":73:78   */\n      dup2\n        /* \"#utility.yul\":62:78   */\n      swap1\n      pop\n        /* \"#utility.yul\":7:84   */\n      swap2\n      swap1\n      pop\n      jump\t// out\n        /* \"#utility.yul\":90:208   */\n    tag_37:\n        /* \"#utility.yul\":177:201   */\n      tag_50\n        /* \"#utility.yul\":195:200   */\n      dup2\n        /* \"#utility.yul\":177:201   */\n      tag_36\n      jump\t// in\n    tag_50:\n        /* \"#utility.yul\":172:175   */\n      dup3\n        /* \"#utility.yul\":165:202   */\n      mstore\n        /* \"#utility.yul\":90:208   */\n      pop\n      pop\n      jump\t// out\n        /* \"#utility.yul\":214:436   */\n    tag_14:\n        /* \"#utility.yul\":307:311   */\n      0x00\n        /* \"#utility.yul\":345:347   */\n      0x20\n        /* \"#utility.yul\":334:343   */\n      dup3\n        /* \"#utility.yul\":330:348   */\n      add\n        /* \"#utility.yul\":322:348   */\n      swap1\n      pop\n        /* \"#utility.yul\":358:429   */\n      tag_52\n        /* \"#utility.yul\":426:427   */\n      0x00\n        /* \"#utility.yul\":415:424   */\n      dup4\n        /* \"#utility.yul\":411:428   */\n      add\n        /* \"#utility.yul\":402:408   */\n      dup5\n        /* \"#utility.yul\":358:429   */\n      tag_37\n      jump\t// in\n    tag_52:\n        /* \"#utility.yul\":214:436   */\n      swap3\n      swap2\n      pop\n      pop\n      jump\t// out\n        /* \"#utility.yul\":523:640   */\n    tag_39:\n        /* \"#utility.yul\":632:633   */\n      0x00\n        /* \"#utility.yul\":629:630   */\n      dup1\n        /* \"#utility.yul\":622:634   */\n      revert\n        /* \"#utility.yul\":769:855   */\n    tag_41:\n        /* \"#utility.yul\":804:811   */\n      0x00\n        /* \"#utility.yul\":844:848   */\n      0xff\n        /* \"#utility.yul\":837:842   */\n      dup3\n        /* \"#utility.yul\":833:849   */\n      and\n        /* \"#utility.yul\":822:849   */\n      swap1\n      pop\n        /* \"#utility.yul\":769:855   */\n      swap2\n      swap1\n      pop\n      jump\t// out\n        /* \"#utility.yul\":861:979   */\n    tag_42:\n        /* \"#utility.yul\":932:954   */\n      tag_58\n        /* \"#utility.yul\":948:953   */\n      dup2\n        /* \"#utility.yul\":932:954   */\n      tag_41\n      jump\t// in\n    tag_58:\n        /* \"#utility.yul\":925:930   */\n      dup2\n        /* \"#utility.yul\":922:955   */\n      eq\n        /* \"#utility.yul\":912:973   */\n      tag_59\n      jumpi\n        /* \"#utility.yul\":969:970   */\n      0x00\n        /* \"#utility.yul\":966:967   */\n      dup1\n        /* \"#utility.yul\":959:971   */\n      revert\n        /* \"#utility.yul\":912:973   */\n    tag_59:\n        /* \"#utility.yul\":861:979   */\n      pop\n      jump\t// out\n        /* \"#utility.yul\":985:1124   */\n    tag_43:\n        /* \"#utility.yul\":1040:1045   */\n      0x00\n        /* \"#utility.yul\":1071:1077   */\n      dup2\n        /* \"#utility.yul\":1065:1078   */\n      mload\n        /* \"#utility.yul\":1056:1078   */\n      swap1\n      pop\n        /* \"#utility.yul\":1087:1118   */\n      tag_61\n        /* \"#utility.yul\":1112:1117   */\n      dup2\n        /* \"#utility.yul\":1087:1118   */\n      tag_42\n      jump\t// in\n    tag_61:\n        /* \"#utility.yul\":985:1124   */\n      swap3\n      swap2\n      pop\n      pop\n      jump\t// out\n        /* \"#utility.yul\":1130:1477   */\n    tag_31:\n        /* \"#utility.yul\":1198:1204   */\n      0x00\n        /* \"#utility.yul\":1247:1249   */\n      0x20\n        /* \"#utility.yul\":1235:1244   */\n      dup3\n        /* \"#utility.yul\":1226:1233   */\n      dup5\n        /* \"#utility.yul\":1222:1245   */\n      sub\n        /* \"#utility.yul\":1218:1250   */\n      slt\n        /* \"#utility.yul\":1215:1334   */\n      iszero\n      tag_63\n      jumpi\n        /* \"#utility.yul\":1253:1332   */\n      tag_64\n      tag_39\n      jump\t// in\n    tag_64:\n        /* \"#utility.yul\":1215:1334   */\n    tag_63:\n        /* \"#utility.yul\":1373:1374   */\n      0x00\n        /* \"#utility.yul\":1398:1460   */\n      tag_65\n        /* \"#utility.yul\":1452:1459   */\n      dup5\n        /* \"#utility.yul\":1443:1449   */\n      dup3\n        /* \"#utility.yul\":1432:1441   */\n      dup6\n        /* \"#utility.yul\":1428:1450   */\n      add\n        /* \"#utility.yul\":1398:1460   */\n      tag_43\n      jump\t// in\n    tag_65:\n        /* \"#utility.yul\":1388:1460   */\n      swap2\n      pop\n        /* \"#utility.yul\":1344:1470   */\n      pop\n        /* \"#utility.yul\":1130:1477   */\n      swap3\n      swap2\n      pop\n      pop\n      jump\t// out\n        /* \"#utility.yul\":1483:1652   */\n    tag_44:\n        /* \"#utility.yul\":1567:1578   */\n      0x00\n        /* \"#utility.yul\":1601:1607   */\n      dup3\n        /* \"#utility.yul\":1596:1599   */\n      dup3\n        /* \"#utility.yul\":1589:1608   */\n      mstore\n        /* \"#utility.yul\":1641:1645   */\n      0x20\n        /* \"#utility.yul\":1636:1639   */\n      dup3\n        /* \"#utility.yul\":1632:1646   */\n      add\n        /* \"#utility.yul\":1617:1646   */\n      swap1\n      pop\n        /* \"#utility.yul\":1483:1652   */\n      swap3\n      swap2\n      pop\n      pop\n      jump\t// out\n        /* \"#utility.yul\":1658:1823   */\n    tag_45:\n        /* \"#utility.yul\":1798:1815   */\n      0x4e454544204d4f5245204d4f4e45590000000000000000000000000000000000\n        /* \"#utility.yul\":1794:1795   */\n      0x00\n        /* \"#utility.yul\":1786:1792   */\n      dup3\n        /* \"#utility.yul\":1782:1796   */\n      add\n        /* \"#utility.yul\":1775:1816   */\n      mstore\n        /* \"#utility.yul\":1658:1823   */\n      pop\n      jump\t// out\n        /* \"#utility.yul\":1829:2195   */\n    tag_46:\n        /* \"#utility.yul\":1971:1974   */\n      0x00\n        /* \"#utility.yul\":1992:2059   */\n      tag_69\n        /* \"#utility.yul\":2056:2058   */\n      0x0f\n        /* \"#utility.yul\":2051:2054   */\n      dup4\n        /* \"#utility.yul\":1992:2059   */\n      tag_44\n      jump\t// in\n    tag_69:\n        /* \"#utility.yul\":1985:2059   */\n      swap2\n      pop\n        /* \"#utility.yul\":2068:2161   */\n      tag_70\n        /* \"#utility.yul\":2157:2160   */\n      dup3\n        /* \"#utility.yul\":2068:2161   */\n      tag_45\n      jump\t// in\n    tag_70:\n        /* \"#utility.yul\":2186:2188   */\n      0x20\n        /* \"#utility.yul\":2181:2184   */\n      dup3\n        /* \"#utility.yul\":2177:2189   */\n      add\n        /* \"#utility.yul\":2170:2189   */\n      swap1\n      pop\n        /* \"#utility.yul\":1829:2195   */\n      swap2\n      swap1\n      pop\n      jump\t// out\n        /* \"#utility.yul\":2201:2620   */\n    tag_35:\n        /* \"#utility.yul\":2367:2371   */\n      0x00\n        /* \"#utility.yul\":2405:2407   */\n      0x20\n        /* \"#utility.yul\":2394:2403   */\n      dup3\n        /* \"#utility.yul\":2390:2408   */\n      add\n        /* \"#utility.yul\":2382:2408   */\n      swap1\n      pop\n        /* \"#utility.yul\":2454:2463   */\n      dup2\n        /* \"#utility.yul\":2448:2452   */\n      dup2\n        /* \"#utility.yul\":2444:2464   */\n      sub\n        /* \"#utility.yul\":2440:2441   */\n      0x00\n        /* \"#utility.yul\":2429:2438   */\n      dup4\n        /* \"#utility.yul\":2425:2442   */\n      add\n        /* \"#utility.yul\":2418:2465   */\n      mstore\n        /* \"#utility.yul\":2482:2613   */\n      tag_72\n        /* \"#utility.yul\":2608:2612   */\n      dup2\n        /* \"#utility.yul\":2482:2613   */\n      tag_46\n      jump\t// in\n    tag_72:\n        /* \"#utility.yul\":2474:2613   */\n      swap1\n      pop\n        /* \"#utility.yul\":2201:2620   */\n      swap2\n      swap1\n      pop\n      jump\t// out\n\n    auxdata: 0xa26469706673582212205ce52077f8a252d9995b6580632617ea1b4cb0521adb47c49c5b3f26d8237ee464736f6c63430008080033\n}\n",
				"bytecode": {
					"linkReferences": {},
					"object": "608060405234801561001057600080fd5b5061033f806100206000396000f3fe60806040526004361061004a5760003560e01c80630fcb59841461004f57806326121ff014610066578063946644cd14610091578063b20e5a79146100bc578063b60d4288146100e7575b600080fd5b34801561005b57600080fd5b506100646100f1565b005b34801561007257600080fd5b5061007b6100f3565b6040516100889190610206565b60405180910390f35b34801561009d57600080fd5b506100a66100f9565b6040516100b39190610206565b60405180910390f35b3480156100c857600080fd5b506100d16100ff565b6040516100de9190610206565b60405180910390f35b6100ef6101a0565b005b565b60015481565b60005481565b60008073d4a33860578de61dbabdc8bfdb98fd742fa7028e90508073ffffffffffffffffffffffffffffffffffffffff1663313ce5676040518163ffffffff1660e01b815260040160206040518083038186803b15801561015f57600080fd5b505afa158015610173573d6000803e3d6000fd5b505050506040513d601f19601f82011682018060405250810190610197919061025f565b60ff1691505090565b670de0b6b3a76400003410156101eb576040517f08c379a00000000000000000000000000000000000000000000000000000000081526004016101e2906102e9565b60405180910390fd5b565b6000819050919050565b610200816101ed565b82525050565b600060208201905061021b60008301846101f7565b92915050565b600080fd5b600060ff82169050919050565b61023c81610226565b811461024757600080fd5b50565b60008151905061025981610233565b92915050565b60006020828403121561027557610274610221565b5b60006102838482850161024a565b91505092915050565b600082825260208201905092915050565b7f4e454544204d4f5245204d4f4e45590000000000000000000000000000000000600082015250565b60006102d3600f8361028c565b91506102de8261029d565b602082019050919050565b60006020820190508181036000830152610302816102c6565b905091905056fea26469706673582212205ce52077f8a252d9995b6580632617ea1b4cb0521adb47c49c5b3f26d8237ee464736f6c63430008080033",
					"opcodes": "PUSH1 0x80 PUSH1 0x40 MSTORE CALLVALUE DUP1 ISZERO PUSH2 0x10 JUMPI PUSH1 0x0 DUP1 REVERT JUMPDEST POP PUSH2 0x33F DUP1 PUSH2 0x20 PUSH1 0x0 CODECOPY PUSH1 0x0 RETURN INVALID PUSH1 0x80 PUSH1 0x40 MSTORE PUSH1 0x4 CALLDATASIZE LT PUSH2 0x4A JUMPI PUSH1 0x0 CALLDATALOAD PUSH1 0xE0 SHR DUP1 PUSH4 0xFCB5984 EQ PUSH2 0x4F JUMPI DUP1 PUSH4 0x26121FF0 EQ PUSH2 0x66 JUMPI DUP1 PUSH4 0x946644CD EQ PUSH2 0x91 JUMPI DUP1 PUSH4 0xB20E5A79 EQ PUSH2 0xBC JUMPI DUP1 PUSH4 0xB60D4288 EQ PUSH2 0xE7 JUMPI JUMPDEST PUSH1 0x0 DUP1 REVERT JUMPDEST CALLVALUE DUP1 ISZERO PUSH2 0x5B JUMPI PUSH1 0x0 DUP1 REVERT JUMPDEST POP PUSH2 0x64 PUSH2 0xF1 JUMP JUMPDEST STOP JUMPDEST CALLVALUE DUP1 ISZERO PUSH2 0x72 JUMPI PUSH1 0x0 DUP1 REVERT JUMPDEST POP PUSH2 0x7B PUSH2 0xF3 JUMP JUMPDEST PUSH1 0x40 MLOAD PUSH2 0x88 SWAP2 SWAP1 PUSH2 0x206 JUMP JUMPDEST PUSH1 0x40 MLOAD DUP1 SWAP2 SUB SWAP1 RETURN JUMPDEST CALLVALUE DUP1 ISZERO PUSH2 0x9D JUMPI PUSH1 0x0 DUP1 REVERT JUMPDEST POP PUSH2 0xA6 PUSH2 0xF9 JUMP JUMPDEST PUSH1 0x40 MLOAD PUSH2 0xB3 SWAP2 SWAP1 PUSH2 0x206 JUMP JUMPDEST PUSH1 0x40 MLOAD DUP1 SWAP2 SUB SWAP1 RETURN JUMPDEST CALLVALUE DUP1 ISZERO PUSH2 0xC8 JUMPI PUSH1 0x0 DUP1 REVERT JUMPDEST POP PUSH2 0xD1 PUSH2 0xFF JUMP JUMPDEST PUSH1 0x40 MLOAD PUSH2 0xDE SWAP2 SWAP1 PUSH2 0x206 JUMP JUMPDEST PUSH1 0x40 MLOAD DUP1 SWAP2 SUB SWAP1 RETURN JUMPDEST PUSH2 0xEF PUSH2 0x1A0 JUMP JUMPDEST STOP JUMPDEST JUMP JUMPDEST PUSH1 0x1 SLOAD DUP2 JUMP JUMPDEST PUSH1 0x0 SLOAD DUP2 JUMP JUMPDEST PUSH1 0x0 DUP1 PUSH20 0xD4A33860578DE61DBABDC8BFDB98FD742FA7028E SWAP1 POP DUP1 PUSH20 0xFFFFFFFFFFFFFFFFFFFFFFFFFFFFFFFFFFFFFFFF AND PUSH4 0x313CE567 PUSH1 0x40 MLOAD DUP2 PUSH4 0xFFFFFFFF AND PUSH1 0xE0 SHL DUP2 MSTORE PUSH1 0x4 ADD PUSH1 0x20 PUSH1 0x40 MLOAD DUP1 DUP4 SUB DUP2 DUP7 DUP1 EXTCODESIZE ISZERO DUP1 ISZERO PUSH2 0x15F JUMPI PUSH1 0x0 DUP1 REVERT JUMPDEST POP GAS STATICCALL ISZERO DUP1 ISZERO PUSH2 0x173 JUMPI RETURNDATASIZE PUSH1 0x0 DUP1 RETURNDATACOPY RETURNDATASIZE PUSH1 0x0 REVERT JUMPDEST POP POP POP POP PUSH1 0x40 MLOAD RETURNDATASIZE PUSH1 0x1F NOT PUSH1 0x1F DUP3 ADD AND DUP3 ADD DUP1 PUSH1 0x40 MSTORE POP DUP2 ADD SWAP1 PUSH2 0x197 SWAP2 SWAP1 PUSH2 0x25F JUMP JUMPDEST PUSH1 0xFF AND SWAP2 POP POP SWAP1 JUMP JUMPDEST PUSH8 0xDE0B6B3A7640000 CALLVALUE LT ISZERO PUSH2 0x1EB JUMPI PUSH1 0x40 MLOAD PUSH32 0x8C379A000000000000000000000000000000000000000000000000000000000 DUP2 MSTORE PUSH1 0x4 ADD PUSH2 0x1E2 SWAP1 PUSH2 0x2E9 JUMP JUMPDEST PUSH1 0x40 MLOAD DUP1 SWAP2 SUB SWAP1 REVERT JUMPDEST JUMP JUMPDEST PUSH1 0x0 DUP2 SWAP1 POP SWAP2 SWAP1 POP JUMP JUMPDEST PUSH2 0x200 DUP2 PUSH2 0x1ED JUMP JUMPDEST DUP3 MSTORE POP POP JUMP JUMPDEST PUSH1 0x0 PUSH1 0x20 DUP3 ADD SWAP1 POP PUSH2 0x21B PUSH1 0x0 DUP4 ADD DUP5 PUSH2 0x1F7 JUMP JUMPDEST SWAP3 SWAP2 POP POP JUMP JUMPDEST PUSH1 0x0 DUP1 REVERT JUMPDEST PUSH1 0x0 PUSH1 0xFF DUP3 AND SWAP1 POP SWAP2 SWAP1 POP JUMP JUMPDEST PUSH2 0x23C DUP2 PUSH2 0x226 JUMP JUMPDEST DUP2 EQ PUSH2 0x247 JUMPI PUSH1 0x0 DUP1 REVERT JUMPDEST POP JUMP JUMPDEST PUSH1 0x0 DUP2 MLOAD SWAP1 POP PUSH2 0x259 DUP2 PUSH2 0x233 JUMP JUMPDEST SWAP3 SWAP2 POP POP JUMP JUMPDEST PUSH1 0x0 PUSH1 0x20 DUP3 DUP5 SUB SLT ISZERO PUSH2 0x275 JUMPI PUSH2 0x274 PUSH2 0x221 JUMP JUMPDEST JUMPDEST PUSH1 0x0 PUSH2 0x283 DUP5 DUP3 DUP6 ADD PUSH2 0x24A JUMP JUMPDEST SWAP2 POP POP SWAP3 SWAP2 POP POP JUMP JUMPDEST PUSH1 0x0 DUP3 DUP3 MSTORE PUSH1 0x20 DUP3 ADD SWAP1 POP SWAP3 SWAP2 POP POP JUMP JUMPDEST PUSH32 0x4E454544204D4F5245204D4F4E45590000000000000000000000000000000000 PUSH1 0x0 DUP3 ADD MSTORE POP JUMP JUMPDEST PUSH1 0x0 PUSH2 0x2D3 PUSH1 0xF DUP4 PUSH2 0x28C JUMP JUMPDEST SWAP2 POP PUSH2 0x2DE DUP3 PUSH2 0x29D JUMP JUMPDEST PUSH1 0x20 DUP3 ADD SWAP1 POP SWAP2 SWAP1 POP JUMP JUMPDEST PUSH1 0x0 PUSH1 0x20 DUP3 ADD SWAP1 POP DUP2 DUP2 SUB PUSH1 0x0 DUP4 ADD MSTORE PUSH2 0x302 DUP2 PUSH2 0x2C6 JUMP JUMPDEST SWAP1 POP SWAP2 SWAP1 POP JUMP INVALID LOG2 PUSH5 0x6970667358 0x22 SLT KECCAK256 0x5C 0xE5 KECCAK256 PUSH24 0xF8A252D9995B6580632617EA1B4CB0521ADB47C49C5B3F26 0xD8 0x23 PUSH31 0xE464736F6C6343000808003300000000000000000000000000000000000000 "
				},
				"gasEstimates": {
					"creation": {
						"codeDepositCost": "166200",
						"executionCost": "208",
						"totalCost": "166408"
					},
					"external": {
						"f()": "2429",
						"fun()": "2451",
						"fund()": "500",
						"getdecimals()": "infinite",
						"getprice()": "122"
					}
				},
				"methodIdentifiers": {
					"f()": "26121ff0",
					"fun()": "946644cd",
					"fund()": "b60d4288",
					"getdecimals()": "b20e5a79",
					"getprice()": "0fcb5984"
				}
			},
			"storageLayout": {
				"storage": [
					{
						"astId": 50,
						"contract": "contracts/FundMe.sol:FundMe",
						"label": "fun",
						"offset": 0,
						"slot": "0",
						"type": "t_uint256"
					},
					{
						"astId": 52,
						"contract": "contracts/FundMe.sol:FundMe",
						"label": "f",
						"offset": 0,
						"slot": "1",
						"type": "t_uint256"
					}
				],
				"types": {
					"t_uint256": {
						"encoding": "inplace",
						"label": "uint256",
						"numberOfBytes": "32"
					}
				}
			},
			"userdoc": {
				"kind": "user",
				"methods": {},
				"version": 1
			}
		}
	}
}