{
	"contracts/FundMe.sol": {
		"FundMe": {
			"abi": [
				{
					"inputs": [],
					"name": "f",
					"outputs": [
						{
							"internalType": "uint256",
							"name": "",
							"type": "uint256"
						}
					],
					"stateMutability": "view",
					"type": "function"
				},
				{
					"inputs": [],
					"name": "fun",
					"outputs": [
						{
							"internalType": "uint256",
							"name": "",
							"type": "uint256"
						}
					],
					"stateMutability": "view",
					"type": "function"
				},
				{
					"inputs": [],
					"name": "fund",
					"outputs": [],
					"stateMutability": "payable",
					"type": "function"
				},
				{
					"inputs": [
						{
							"internalType": "uint256",
							"name": "ethamount",
							"type": "uint256"
						}
					],
					"name": "getconversionrate",
					"outputs": [
						{
							"internalType": "uint256",
							"name": "",
							"type": "uint256"
						}
					],
					"stateMutability": "nonpayable",
					"type": "function"
				},
				{
					"inputs": [],
					"name": "getprice",
					"outputs": [
						{
							"internalType": "uint256",
							"name": "",
							"type": "uint256"
						}
					],
					"stateMutability": "view",
					"type": "function"
				}
			],
			"devdoc": {
				"kind": "dev",
				"methods": {},
				"version": 1
			},
			"evm": {
				"assembly": "    /* \"contracts/FundMe.sol\":325:1537  contract FundMe{... */\n  mstore(0x40, 0x80)\n  callvalue\n  dup1\n  iszero\n  tag_1\n  jumpi\n  0x00\n  dup1\n  revert\ntag_1:\n  pop\n  dataSize(sub_0)\n  dup1\n  dataOffset(sub_0)\n  0x00\n  codecopy\n  0x00\n  return\nstop\n\nsub_0: assembly {\n        /* \"contracts/FundMe.sol\":325:1537  contract FundMe{... */\n      mstore(0x40, 0x80)\n      jumpi(tag_1, lt(calldatasize, 0x04))\n      shr(0xe0, calldataload(0x00))\n      dup1\n      0x0fcb5984\n      eq\n      tag_2\n      jumpi\n      dup1\n      0x26121ff0\n      eq\n      tag_3\n      jumpi\n      dup1\n      0x262f564b\n      eq\n      tag_4\n      jumpi\n      dup1\n      0x946644cd\n      eq\n      tag_5\n      jumpi\n      dup1\n      0xb60d4288\n      eq\n      tag_6\n      jumpi\n    tag_1:\n      0x00\n      dup1\n      revert\n        /* \"contracts/FundMe.sol\":661:1090  function getprice() public view returns(uint256){... */\n    tag_2:\n      callvalue\n      dup1\n      iszero\n      tag_7\n      jumpi\n      0x00\n      dup1\n      revert\n    tag_7:\n      pop\n      tag_8\n      tag_9\n      jump\t// in\n    tag_8:\n      mload(0x40)\n      tag_10\n      swap2\n      swap1\n      tag_11\n      jump\t// in\n    tag_10:\n      mload(0x40)\n      dup1\n      swap2\n      sub\n      swap1\n      return\n        /* \"contracts/FundMe.sol\":372:388  uint256 public f */\n    tag_3:\n      callvalue\n      dup1\n      iszero\n      tag_12\n      jumpi\n      0x00\n      dup1\n      revert\n    tag_12:\n      pop\n      tag_13\n      tag_14\n      jump\t// in\n    tag_13:\n      mload(0x40)\n      tag_15\n      swap2\n      swap1\n      tag_11\n      jump\t// in\n    tag_15:\n      mload(0x40)\n      dup1\n      swap2\n      sub\n      swap1\n      return\n        /* \"contracts/FundMe.sol\":1096:1311  function getconversionrate(uint256 ethamount)public returns(uint256){... */\n    tag_4:\n      callvalue\n      dup1\n      iszero\n      tag_16\n      jumpi\n      0x00\n      dup1\n      revert\n    tag_16:\n      pop\n      tag_17\n      0x04\n      dup1\n      calldatasize\n      sub\n      dup2\n      add\n      swap1\n      tag_18\n      swap2\n      swap1\n      tag_19\n      jump\t// in\n    tag_18:\n      tag_20\n      jump\t// in\n    tag_17:\n      mload(0x40)\n      tag_21\n      swap2\n      swap1\n      tag_11\n      jump\t// in\n    tag_21:\n      mload(0x40)\n      dup1\n      swap2\n      sub\n      swap1\n      return\n        /* \"contracts/FundMe.sol\":347:365  uint256 public fun */\n    tag_5:\n      callvalue\n      dup1\n      iszero\n      tag_22\n      jumpi\n      0x00\n      dup1\n      revert\n    tag_22:\n      pop\n      tag_23\n      tag_24\n      jump\t// in\n    tag_23:\n      mload(0x40)\n      tag_25\n      swap2\n      swap1\n      tag_11\n      jump\t// in\n    tag_25:\n      mload(0x40)\n      dup1\n      swap2\n      sub\n      swap1\n      return\n        /* \"contracts/FundMe.sol\":395:655  function fund() public payable{... */\n    tag_6:\n      tag_26\n      tag_27\n      jump\t// in\n    tag_26:\n      stop\n        /* \"contracts/FundMe.sol\":661:1090  function getprice() public view returns(uint256){... */\n    tag_9:\n        /* \"contracts/FundMe.sol\":701:708  uint256 */\n      0x00\n        /* \"contracts/FundMe.sol\":883:914  AggregatorV3Interface pricefeed */\n      dup1\n        /* \"contracts/FundMe.sol\":938:980  0xD4a33860578De61DBAbDc8BFdb98FD742fA7028e */\n      0xd4a33860578de61dbabdc8bfdb98fd742fa7028e\n        /* \"contracts/FundMe.sol\":883:981  AggregatorV3Interface pricefeed= AggregatorV3Interface(0xD4a33860578De61DBAbDc8BFdb98FD742fA7028e) */\n      swap1\n      pop\n        /* \"contracts/FundMe.sol\":994:1006  int256 price */\n      0x00\n        /* \"contracts/FundMe.sol\":1011:1020  pricefeed */\n      dup2\n        /* \"contracts/FundMe.sol\":1011:1036  pricefeed.latestRoundData */\n      0xffffffffffffffffffffffffffffffffffffffff\n      and\n      0xfeaf968c\n        /* \"contracts/FundMe.sol\":1011:1038  pricefeed.latestRoundData() */\n      mload(0x40)\n      dup2\n      0xffffffff\n      and\n      0xe0\n      shl\n      dup2\n      mstore\n      0x04\n      add\n      0xa0\n      mload(0x40)\n      dup1\n      dup4\n      sub\n      dup2\n      dup7\n      dup1\n      extcodesize\n      iszero\n      dup1\n      iszero\n      tag_29\n      jumpi\n      0x00\n      dup1\n      revert\n    tag_29:\n      pop\n      gas\n      staticcall\n      iszero\n      dup1\n      iszero\n      tag_31\n      jumpi\n      returndatasize\n      0x00\n      dup1\n      returndatacopy\n      revert(0x00, returndatasize)\n    tag_31:\n      pop\n      pop\n      pop\n      pop\n      mload(0x40)\n      returndatasize\n      not(0x1f)\n      0x1f\n      dup3\n      add\n      and\n      dup3\n      add\n      dup1\n      0x40\n      mstore\n      pop\n      dup2\n      add\n      swap1\n      tag_32\n      swap2\n      swap1\n      tag_33\n      jump\t// in\n    tag_32:\n        /* \"contracts/FundMe.sol\":992:1038  (,int256 price,,,)=pricefeed.latestRoundData() */\n      pop\n      pop\n      pop\n      swap2\n      pop\n      pop\n        /* \"contracts/FundMe.sol\":1072:1076  1e10 */\n      0x02540be400\n        /* \"contracts/FundMe.sol\":1064:1069  price */\n      dup2\n        /* \"contracts/FundMe.sol\":1064:1076  price * 1e10 */\n      tag_34\n      swap2\n      swap1\n      tag_35\n      jump\t// in\n    tag_34:\n        /* \"contracts/FundMe.sol\":1049:1077  return uint256(price * 1e10) */\n      swap3\n      pop\n      pop\n      pop\n        /* \"contracts/FundMe.sol\":661:1090  function getprice() public view returns(uint256){... */\n      swap1\n      jump\t// out\n        /* \"contracts/FundMe.sol\":372:388  uint256 public f */\n    tag_14:\n      sload(0x01)\n      dup2\n      jump\t// out\n        /* \"contracts/FundMe.sol\":1096:1311  function getconversionrate(uint256 ethamount)public returns(uint256){... */\n    tag_20:\n        /* \"contracts/FundMe.sol\":1156:1163  uint256 */\n      0x00\n        /* \"contracts/FundMe.sol\":1175:1191  uint256 ethprice */\n      dup1\n        /* \"contracts/FundMe.sol\":1192:1202  getprice() */\n      tag_37\n        /* \"contracts/FundMe.sol\":1192:1200  getprice */\n      tag_9\n        /* \"contracts/FundMe.sol\":1192:1202  getprice() */\n      jump\t// in\n    tag_37:\n        /* \"contracts/FundMe.sol\":1175:1202  uint256 ethprice=getprice() */\n      swap1\n      pop\n        /* \"contracts/FundMe.sol\":1213:1240  uint256 ethamountpriceinusd */\n      0x00\n        /* \"contracts/FundMe.sol\":1262:1266  1e18 */\n      0x0de0b6b3a7640000\n        /* \"contracts/FundMe.sol\":1252:1260  ethprice */\n      dup3\n        /* \"contracts/FundMe.sol\":1242:1251  ethamount */\n      dup6\n        /* \"contracts/FundMe.sol\":1242:1260  ethamount*ethprice */\n      tag_38\n      swap2\n      swap1\n      tag_39\n      jump\t// in\n    tag_38:\n        /* \"contracts/FundMe.sol\":1241:1266  (ethamount*ethprice)/1e18 */\n      tag_40\n      swap2\n      swap1\n      tag_41\n      jump\t// in\n    tag_40:\n        /* \"contracts/FundMe.sol\":1213:1266  uint256 ethamountpriceinusd=(ethamount*ethprice)/1e18 */\n      swap1\n      pop\n        /* \"contracts/FundMe.sol\":1284:1303  ethamountpriceinusd */\n      dup1\n        /* \"contracts/FundMe.sol\":1277:1303  return ethamountpriceinusd */\n      swap3\n      pop\n      pop\n      pop\n        /* \"contracts/FundMe.sol\":1096:1311  function getconversionrate(uint256 ethamount)public returns(uint256){... */\n      swap2\n      swap1\n      pop\n      jump\t// out\n        /* \"contracts/FundMe.sol\":347:365  uint256 public fun */\n    tag_24:\n      sload(0x00)\n      dup2\n      jump\t// out\n        /* \"contracts/FundMe.sol\":395:655  function fund() public payable{... */\n    tag_27:\n        /* \"contracts/FundMe.sol\":519:523  1e18 */\n      0x0de0b6b3a7640000\n        /* \"contracts/FundMe.sol\":508:517  msg.value */\n      callvalue\n        /* \"contracts/FundMe.sol\":508:523  msg.value>=1e18 */\n      lt\n      iszero\n        /* \"contracts/FundMe.sol\":500:542  require(msg.value>=1e18,\"NEED MORE MONEY\") */\n      tag_43\n      jumpi\n      mload(0x40)\n      0x08c379a000000000000000000000000000000000000000000000000000000000\n      dup2\n      mstore\n      0x04\n      add\n      tag_44\n      swap1\n      tag_45\n      jump\t// in\n    tag_44:\n      mload(0x40)\n      dup1\n      swap2\n      sub\n      swap1\n      revert\n    tag_43:\n        /* \"contracts/FundMe.sol\":395:655  function fund() public payable{... */\n      jump\t// out\n        /* \"#utility.yul\":7:84   */\n    tag_46:\n        /* \"#utility.yul\":44:51   */\n      0x00\n        /* \"#utility.yul\":73:78   */\n      dup2\n        /* \"#utility.yul\":62:78   */\n      swap1\n      pop\n        /* \"#utility.yul\":7:84   */\n      swap2\n      swap1\n      pop\n      jump\t// out\n        /* \"#utility.yul\":90:208   */\n    tag_47:\n        /* \"#utility.yul\":177:201   */\n      tag_68\n        /* \"#utility.yul\":195:200   */\n      dup2\n        /* \"#utility.yul\":177:201   */\n      tag_46\n      jump\t// in\n    tag_68:\n        /* \"#utility.yul\":172:175   */\n      dup3\n        /* \"#utility.yul\":165:202   */\n      mstore\n        /* \"#utility.yul\":90:208   */\n      pop\n      pop\n      jump\t// out\n        /* \"#utility.yul\":214:436   */\n    tag_11:\n        /* \"#utility.yul\":307:311   */\n      0x00\n        /* \"#utility.yul\":345:347   */\n      0x20\n        /* \"#utility.yul\":334:343   */\n      dup3\n        /* \"#utility.yul\":330:348   */\n      add\n        /* \"#utility.yul\":322:348   */\n      swap1\n      pop\n        /* \"#utility.yul\":358:429   */\n      tag_70\n        /* \"#utility.yul\":426:427   */\n      0x00\n        /* \"#utility.yul\":415:424   */\n      dup4\n        /* \"#utility.yul\":411:428   */\n      add\n        /* \"#utility.yul\":402:408   */\n      dup5\n        /* \"#utility.yul\":358:429   */\n      tag_47\n      jump\t// in\n    tag_70:\n        /* \"#utility.yul\":214:436   */\n      swap3\n      swap2\n      pop\n      pop\n      jump\t// out\n        /* \"#utility.yul\":523:640   */\n    tag_49:\n        /* \"#utility.yul\":632:633   */\n      0x00\n        /* \"#utility.yul\":629:630   */\n      dup1\n        /* \"#utility.yul\":622:634   */\n      revert\n        /* \"#utility.yul\":769:891   */\n    tag_51:\n        /* \"#utility.yul\":842:866   */\n      tag_75\n        /* \"#utility.yul\":860:865   */\n      dup2\n        /* \"#utility.yul\":842:866   */\n      tag_46\n      jump\t// in\n    tag_75:\n        /* \"#utility.yul\":835:840   */\n      dup2\n        /* \"#utility.yul\":832:867   */\n      eq\n        /* \"#utility.yul\":822:885   */\n      tag_76\n      jumpi\n        /* \"#utility.yul\":881:882   */\n      0x00\n        /* \"#utility.yul\":878:879   */\n      dup1\n        /* \"#utility.yul\":871:883   */\n      revert\n        /* \"#utility.yul\":822:885   */\n    tag_76:\n        /* \"#utility.yul\":769:891   */\n      pop\n      jump\t// out\n        /* \"#utility.yul\":897:1036   */\n    tag_52:\n        /* \"#utility.yul\":943:948   */\n      0x00\n        /* \"#utility.yul\":981:987   */\n      dup2\n        /* \"#utility.yul\":968:988   */\n      calldataload\n        /* \"#utility.yul\":959:988   */\n      swap1\n      pop\n        /* \"#utility.yul\":997:1030   */\n      tag_78\n        /* \"#utility.yul\":1024:1029   */\n      dup2\n        /* \"#utility.yul\":997:1030   */\n      tag_51\n      jump\t// in\n    tag_78:\n        /* \"#utility.yul\":897:1036   */\n      swap3\n      swap2\n      pop\n      pop\n      jump\t// out\n        /* \"#utility.yul\":1042:1371   */\n    tag_19:\n        /* \"#utility.yul\":1101:1107   */\n      0x00\n        /* \"#utility.yul\":1150:1152   */\n      0x20\n        /* \"#utility.yul\":1138:1147   */\n      dup3\n        /* \"#utility.yul\":1129:1136   */\n      dup5\n        /* \"#utility.yul\":1125:1148   */\n      sub\n        /* \"#utility.yul\":1121:1153   */\n      slt\n        /* \"#utility.yul\":1118:1237   */\n      iszero\n      tag_80\n      jumpi\n        /* \"#utility.yul\":1156:1235   */\n      tag_81\n      tag_49\n      jump\t// in\n    tag_81:\n        /* \"#utility.yul\":1118:1237   */\n    tag_80:\n        /* \"#utility.yul\":1276:1277   */\n      0x00\n        /* \"#utility.yul\":1301:1354   */\n      tag_82\n        /* \"#utility.yul\":1346:1353   */\n      dup5\n        /* \"#utility.yul\":1337:1343   */\n      dup3\n        /* \"#utility.yul\":1326:1335   */\n      dup6\n        /* \"#utility.yul\":1322:1344   */\n      add\n        /* \"#utility.yul\":1301:1354   */\n      tag_52\n      jump\t// in\n    tag_82:\n        /* \"#utility.yul\":1291:1354   */\n      swap2\n      pop\n        /* \"#utility.yul\":1247:1364   */\n      pop\n        /* \"#utility.yul\":1042:1371   */\n      swap3\n      swap2\n      pop\n      pop\n      jump\t// out\n        /* \"#utility.yul\":1377:1482   */\n    tag_53:\n        /* \"#utility.yul\":1413:1420   */\n      0x00\n        /* \"#utility.yul\":1453:1475   */\n      0xffffffffffffffffffff\n        /* \"#utility.yul\":1446:1451   */\n      dup3\n        /* \"#utility.yul\":1442:1476   */\n      and\n        /* \"#utility.yul\":1431:1476   */\n      swap1\n      pop\n        /* \"#utility.yul\":1377:1482   */\n      swap2\n      swap1\n      pop\n      jump\t// out\n        /* \"#utility.yul\":1488:1608   */\n    tag_54:\n        /* \"#utility.yul\":1560:1583   */\n      tag_85\n        /* \"#utility.yul\":1577:1582   */\n      dup2\n        /* \"#utility.yul\":1560:1583   */\n      tag_53\n      jump\t// in\n    tag_85:\n        /* \"#utility.yul\":1553:1558   */\n      dup2\n        /* \"#utility.yul\":1550:1584   */\n      eq\n        /* \"#utility.yul\":1540:1602   */\n      tag_86\n      jumpi\n        /* \"#utility.yul\":1598:1599   */\n      0x00\n        /* \"#utility.yul\":1595:1596   */\n      dup1\n        /* \"#utility.yul\":1588:1600   */\n      revert\n        /* \"#utility.yul\":1540:1602   */\n    tag_86:\n        /* \"#utility.yul\":1488:1608   */\n      pop\n      jump\t// out\n        /* \"#utility.yul\":1614:1755   */\n    tag_55:\n        /* \"#utility.yul\":1670:1675   */\n      0x00\n        /* \"#utility.yul\":1701:1707   */\n      dup2\n        /* \"#utility.yul\":1695:1708   */\n      mload\n        /* \"#utility.yul\":1686:1708   */\n      swap1\n      pop\n        /* \"#utility.yul\":1717:1749   */\n      tag_88\n        /* \"#utility.yul\":1743:1748   */\n      dup2\n        /* \"#utility.yul\":1717:1749   */\n      tag_54\n      jump\t// in\n    tag_88:\n        /* \"#utility.yul\":1614:1755   */\n      swap3\n      swap2\n      pop\n      pop\n      jump\t// out\n        /* \"#utility.yul\":1761:1837   */\n    tag_56:\n        /* \"#utility.yul\":1797:1804   */\n      0x00\n        /* \"#utility.yul\":1826:1831   */\n      dup2\n        /* \"#utility.yul\":1815:1831   */\n      swap1\n      pop\n        /* \"#utility.yul\":1761:1837   */\n      swap2\n      swap1\n      pop\n      jump\t// out\n        /* \"#utility.yul\":1843:1963   */\n    tag_57:\n        /* \"#utility.yul\":1915:1938   */\n      tag_91\n        /* \"#utility.yul\":1932:1937   */\n      dup2\n        /* \"#utility.yul\":1915:1938   */\n      tag_56\n      jump\t// in\n    tag_91:\n        /* \"#utility.yul\":1908:1913   */\n      dup2\n        /* \"#utility.yul\":1905:1939   */\n      eq\n        /* \"#utility.yul\":1895:1957   */\n      tag_92\n      jumpi\n        /* \"#utility.yul\":1953:1954   */\n      0x00\n        /* \"#utility.yul\":1950:1951   */\n      dup1\n        /* \"#utility.yul\":1943:1955   */\n      revert\n        /* \"#utility.yul\":1895:1957   */\n    tag_92:\n        /* \"#utility.yul\":1843:1963   */\n      pop\n      jump\t// out\n        /* \"#utility.yul\":1969:2110   */\n    tag_58:\n        /* \"#utility.yul\":2025:2030   */\n      0x00\n        /* \"#utility.yul\":2056:2062   */\n      dup2\n        /* \"#utility.yul\":2050:2063   */\n      mload\n        /* \"#utility.yul\":2041:2063   */\n      swap1\n      pop\n        /* \"#utility.yul\":2072:2104   */\n      tag_94\n        /* \"#utility.yul\":2098:2103   */\n      dup2\n        /* \"#utility.yul\":2072:2104   */\n      tag_57\n      jump\t// in\n    tag_94:\n        /* \"#utility.yul\":1969:2110   */\n      swap3\n      swap2\n      pop\n      pop\n      jump\t// out\n        /* \"#utility.yul\":2116:2259   */\n    tag_59:\n        /* \"#utility.yul\":2173:2178   */\n      0x00\n        /* \"#utility.yul\":2204:2210   */\n      dup2\n        /* \"#utility.yul\":2198:2211   */\n      mload\n        /* \"#utility.yul\":2189:2211   */\n      swap1\n      pop\n        /* \"#utility.yul\":2220:2253   */\n      tag_96\n        /* \"#utility.yul\":2247:2252   */\n      dup2\n        /* \"#utility.yul\":2220:2253   */\n      tag_51\n      jump\t// in\n    tag_96:\n        /* \"#utility.yul\":2116:2259   */\n      swap3\n      swap2\n      pop\n      pop\n      jump\t// out\n        /* \"#utility.yul\":2265:3236   */\n    tag_33:\n        /* \"#utility.yul\":2368:2374   */\n      0x00\n        /* \"#utility.yul\":2376:2382   */\n      dup1\n        /* \"#utility.yul\":2384:2390   */\n      0x00\n        /* \"#utility.yul\":2392:2398   */\n      dup1\n        /* \"#utility.yul\":2400:2406   */\n      0x00\n        /* \"#utility.yul\":2449:2452   */\n      0xa0\n        /* \"#utility.yul\":2437:2446   */\n      dup7\n        /* \"#utility.yul\":2428:2435   */\n      dup9\n        /* \"#utility.yul\":2424:2447   */\n      sub\n        /* \"#utility.yul\":2420:2453   */\n      slt\n        /* \"#utility.yul\":2417:2537   */\n      iszero\n      tag_98\n      jumpi\n        /* \"#utility.yul\":2456:2535   */\n      tag_99\n      tag_49\n      jump\t// in\n    tag_99:\n        /* \"#utility.yul\":2417:2537   */\n    tag_98:\n        /* \"#utility.yul\":2576:2577   */\n      0x00\n        /* \"#utility.yul\":2601:2664   */\n      tag_100\n        /* \"#utility.yul\":2656:2663   */\n      dup9\n        /* \"#utility.yul\":2647:2653   */\n      dup3\n        /* \"#utility.yul\":2636:2645   */\n      dup10\n        /* \"#utility.yul\":2632:2654   */\n      add\n        /* \"#utility.yul\":2601:2664   */\n      tag_55\n      jump\t// in\n    tag_100:\n        /* \"#utility.yul\":2591:2664   */\n      swap6\n      pop\n        /* \"#utility.yul\":2547:2674   */\n      pop\n        /* \"#utility.yul\":2713:2715   */\n      0x20\n        /* \"#utility.yul\":2739:2802   */\n      tag_101\n        /* \"#utility.yul\":2794:2801   */\n      dup9\n        /* \"#utility.yul\":2785:2791   */\n      dup3\n        /* \"#utility.yul\":2774:2783   */\n      dup10\n        /* \"#utility.yul\":2770:2792   */\n      add\n        /* \"#utility.yul\":2739:2802   */\n      tag_58\n      jump\t// in\n    tag_101:\n        /* \"#utility.yul\":2729:2802   */\n      swap5\n      pop\n        /* \"#utility.yul\":2684:2812   */\n      pop\n        /* \"#utility.yul\":2851:2853   */\n      0x40\n        /* \"#utility.yul\":2877:2941   */\n      tag_102\n        /* \"#utility.yul\":2933:2940   */\n      dup9\n        /* \"#utility.yul\":2924:2930   */\n      dup3\n        /* \"#utility.yul\":2913:2922   */\n      dup10\n        /* \"#utility.yul\":2909:2931   */\n      add\n        /* \"#utility.yul\":2877:2941   */\n      tag_59\n      jump\t// in\n    tag_102:\n        /* \"#utility.yul\":2867:2941   */\n      swap4\n      pop\n        /* \"#utility.yul\":2822:2951   */\n      pop\n        /* \"#utility.yul\":2990:2992   */\n      0x60\n        /* \"#utility.yul\":3016:3080   */\n      tag_103\n        /* \"#utility.yul\":3072:3079   */\n      dup9\n        /* \"#utility.yul\":3063:3069   */\n      dup3\n        /* \"#utility.yul\":3052:3061   */\n      dup10\n        /* \"#utility.yul\":3048:3070   */\n      add\n        /* \"#utility.yul\":3016:3080   */\n      tag_59\n      jump\t// in\n    tag_103:\n        /* \"#utility.yul\":3006:3080   */\n      swap3\n      pop\n        /* \"#utility.yul\":2961:3090   */\n      pop\n        /* \"#utility.yul\":3129:3132   */\n      0x80\n        /* \"#utility.yul\":3156:3219   */\n      tag_104\n        /* \"#utility.yul\":3211:3218   */\n      dup9\n        /* \"#utility.yul\":3202:3208   */\n      dup3\n        /* \"#utility.yul\":3191:3200   */\n      dup10\n        /* \"#utility.yul\":3187:3209   */\n      add\n        /* \"#utility.yul\":3156:3219   */\n      tag_55\n      jump\t// in\n    tag_104:\n        /* \"#utility.yul\":3146:3219   */\n      swap2\n      pop\n        /* \"#utility.yul\":3100:3229   */\n      pop\n        /* \"#utility.yul\":2265:3236   */\n      swap3\n      swap6\n      pop\n      swap3\n      swap6\n      swap1\n      swap4\n      pop\n      jump\t// out\n        /* \"#utility.yul\":3242:3422   */\n    tag_60:\n        /* \"#utility.yul\":3290:3367   */\n      0x4e487b7100000000000000000000000000000000000000000000000000000000\n        /* \"#utility.yul\":3287:3288   */\n      0x00\n        /* \"#utility.yul\":3280:3368   */\n      mstore\n        /* \"#utility.yul\":3387:3391   */\n      0x11\n        /* \"#utility.yul\":3384:3385   */\n      0x04\n        /* \"#utility.yul\":3377:3392   */\n      mstore\n        /* \"#utility.yul\":3411:3415   */\n      0x24\n        /* \"#utility.yul\":3408:3409   */\n      0x00\n        /* \"#utility.yul\":3401:3416   */\n      revert\n        /* \"#utility.yul\":3428:4419   */\n    tag_35:\n        /* \"#utility.yul\":3467:3474   */\n      0x00\n        /* \"#utility.yul\":3490:3509   */\n      tag_107\n        /* \"#utility.yul\":3507:3508   */\n      dup3\n        /* \"#utility.yul\":3490:3509   */\n      tag_56\n      jump\t// in\n    tag_107:\n        /* \"#utility.yul\":3485:3509   */\n      swap2\n      pop\n        /* \"#utility.yul\":3523:3542   */\n      tag_108\n        /* \"#utility.yul\":3540:3541   */\n      dup4\n        /* \"#utility.yul\":3523:3542   */\n      tag_56\n      jump\t// in\n    tag_108:\n        /* \"#utility.yul\":3518:3542   */\n      swap3\n      pop\n        /* \"#utility.yul\":3724:3725   */\n      dup3\n        /* \"#utility.yul\":3656:3722   */\n      0x7fffffffffffffffffffffffffffffffffffffffffffffffffffffffffffffff\n        /* \"#utility.yul\":3652:3726   */\n      div\n        /* \"#utility.yul\":3649:3650   */\n      dup3\n        /* \"#utility.yul\":3646:3727   */\n      gt\n        /* \"#utility.yul\":3641:3642   */\n      0x00\n        /* \"#utility.yul\":3638:3639   */\n      dup5\n        /* \"#utility.yul\":3634:3643   */\n      sgt\n        /* \"#utility.yul\":3630:3631   */\n      0x00\n        /* \"#utility.yul\":3627:3628   */\n      dup5\n        /* \"#utility.yul\":3623:3632   */\n      sgt\n        /* \"#utility.yul\":3619:3644   */\n      and\n        /* \"#utility.yul\":3615:3728   */\n      and\n        /* \"#utility.yul\":3612:3751   */\n      iszero\n      tag_109\n      jumpi\n        /* \"#utility.yul\":3731:3749   */\n      tag_110\n      tag_60\n      jump\t// in\n    tag_110:\n        /* \"#utility.yul\":3612:3751   */\n    tag_109:\n        /* \"#utility.yul\":3935:3936   */\n      dup2\n        /* \"#utility.yul\":3867:3933   */\n      0x8000000000000000000000000000000000000000000000000000000000000000\n        /* \"#utility.yul\":3862:3937   */\n      sdiv\n        /* \"#utility.yul\":3859:3860   */\n      dup4\n        /* \"#utility.yul\":3855:3938   */\n      slt\n        /* \"#utility.yul\":3850:3851   */\n      0x00\n        /* \"#utility.yul\":3847:3848   */\n      dup5\n        /* \"#utility.yul\":3843:3852   */\n      slt\n        /* \"#utility.yul\":3839:3840   */\n      0x00\n        /* \"#utility.yul\":3836:3837   */\n      dup5\n        /* \"#utility.yul\":3832:3841   */\n      sgt\n        /* \"#utility.yul\":3828:3853   */\n      and\n        /* \"#utility.yul\":3824:3939   */\n      and\n        /* \"#utility.yul\":3821:3962   */\n      iszero\n      tag_111\n      jumpi\n        /* \"#utility.yul\":3942:3960   */\n      tag_112\n      tag_60\n      jump\t// in\n    tag_112:\n        /* \"#utility.yul\":3821:3962   */\n    tag_111:\n        /* \"#utility.yul\":4146:4147   */\n      dup3\n        /* \"#utility.yul\":4078:4144   */\n      0x8000000000000000000000000000000000000000000000000000000000000000\n        /* \"#utility.yul\":4073:4148   */\n      sdiv\n        /* \"#utility.yul\":4070:4071   */\n      dup3\n        /* \"#utility.yul\":4066:4149   */\n      slt\n        /* \"#utility.yul\":4061:4062   */\n      0x00\n        /* \"#utility.yul\":4058:4059   */\n      dup5\n        /* \"#utility.yul\":4054:4063   */\n      sgt\n        /* \"#utility.yul\":4050:4051   */\n      0x00\n        /* \"#utility.yul\":4047:4048   */\n      dup5\n        /* \"#utility.yul\":4043:4052   */\n      slt\n        /* \"#utility.yul\":4039:4064   */\n      and\n        /* \"#utility.yul\":4035:4150   */\n      and\n        /* \"#utility.yul\":4032:4173   */\n      iszero\n      tag_113\n      jumpi\n        /* \"#utility.yul\":4153:4171   */\n      tag_114\n      tag_60\n      jump\t// in\n    tag_114:\n        /* \"#utility.yul\":4032:4173   */\n    tag_113:\n        /* \"#utility.yul\":4356:4357   */\n      dup3\n        /* \"#utility.yul\":4288:4354   */\n      0x7fffffffffffffffffffffffffffffffffffffffffffffffffffffffffffffff\n        /* \"#utility.yul\":4283:4358   */\n      sdiv\n        /* \"#utility.yul\":4280:4281   */\n      dup3\n        /* \"#utility.yul\":4276:4359   */\n      slt\n        /* \"#utility.yul\":4271:4272   */\n      0x00\n        /* \"#utility.yul\":4268:4269   */\n      dup5\n        /* \"#utility.yul\":4264:4273   */\n      slt\n        /* \"#utility.yul\":4260:4261   */\n      0x00\n        /* \"#utility.yul\":4257:4258   */\n      dup5\n        /* \"#utility.yul\":4253:4262   */\n      slt\n        /* \"#utility.yul\":4249:4274   */\n      and\n        /* \"#utility.yul\":4245:4360   */\n      and\n        /* \"#utility.yul\":4242:4383   */\n      iszero\n      tag_115\n      jumpi\n        /* \"#utility.yul\":4363:4381   */\n      tag_116\n      tag_60\n      jump\t// in\n    tag_116:\n        /* \"#utility.yul\":4242:4383   */\n    tag_115:\n        /* \"#utility.yul\":4411:4412   */\n      dup3\n        /* \"#utility.yul\":4408:4409   */\n      dup3\n        /* \"#utility.yul\":4404:4413   */\n      mul\n        /* \"#utility.yul\":4393:4413   */\n      swap1\n      pop\n        /* \"#utility.yul\":3428:4419   */\n      swap3\n      swap2\n      pop\n      pop\n      jump\t// out\n        /* \"#utility.yul\":4425:4773   */\n    tag_39:\n        /* \"#utility.yul\":4465:4472   */\n      0x00\n        /* \"#utility.yul\":4488:4508   */\n      tag_118\n        /* \"#utility.yul\":4506:4507   */\n      dup3\n        /* \"#utility.yul\":4488:4508   */\n      tag_46\n      jump\t// in\n    tag_118:\n        /* \"#utility.yul\":4483:4508   */\n      swap2\n      pop\n        /* \"#utility.yul\":4522:4542   */\n      tag_119\n        /* \"#utility.yul\":4540:4541   */\n      dup4\n        /* \"#utility.yul\":4522:4542   */\n      tag_46\n      jump\t// in\n    tag_119:\n        /* \"#utility.yul\":4517:4542   */\n      swap3\n      pop\n        /* \"#utility.yul\":4710:4711   */\n      dup2\n        /* \"#utility.yul\":4642:4708   */\n      0xffffffffffffffffffffffffffffffffffffffffffffffffffffffffffffffff\n        /* \"#utility.yul\":4638:4712   */\n      div\n        /* \"#utility.yul\":4635:4636   */\n      dup4\n        /* \"#utility.yul\":4632:4713   */\n      gt\n        /* \"#utility.yul\":4627:4628   */\n      dup3\n        /* \"#utility.yul\":4620:4629   */\n      iszero\n        /* \"#utility.yul\":4613:4630   */\n      iszero\n        /* \"#utility.yul\":4609:4714   */\n      and\n        /* \"#utility.yul\":4606:4737   */\n      iszero\n      tag_120\n      jumpi\n        /* \"#utility.yul\":4717:4735   */\n      tag_121\n      tag_60\n      jump\t// in\n    tag_121:\n        /* \"#utility.yul\":4606:4737   */\n    tag_120:\n        /* \"#utility.yul\":4765:4766   */\n      dup3\n        /* \"#utility.yul\":4762:4763   */\n      dup3\n        /* \"#utility.yul\":4758:4767   */\n      mul\n        /* \"#utility.yul\":4747:4767   */\n      swap1\n      pop\n        /* \"#utility.yul\":4425:4773   */\n      swap3\n      swap2\n      pop\n      pop\n      jump\t// out\n        /* \"#utility.yul\":4779:4959   */\n    tag_61:\n        /* \"#utility.yul\":4827:4904   */\n      0x4e487b7100000000000000000000000000000000000000000000000000000000\n        /* \"#utility.yul\":4824:4825   */\n      0x00\n        /* \"#utility.yul\":4817:4905   */\n      mstore\n        /* \"#utility.yul\":4924:4928   */\n      0x12\n        /* \"#utility.yul\":4921:4922   */\n      0x04\n        /* \"#utility.yul\":4914:4929   */\n      mstore\n        /* \"#utility.yul\":4948:4952   */\n      0x24\n        /* \"#utility.yul\":4945:4946   */\n      0x00\n        /* \"#utility.yul\":4938:4953   */\n      revert\n        /* \"#utility.yul\":4965:5150   */\n    tag_41:\n        /* \"#utility.yul\":5005:5006   */\n      0x00\n        /* \"#utility.yul\":5022:5042   */\n      tag_124\n        /* \"#utility.yul\":5040:5041   */\n      dup3\n        /* \"#utility.yul\":5022:5042   */\n      tag_46\n      jump\t// in\n    tag_124:\n        /* \"#utility.yul\":5017:5042   */\n      swap2\n      pop\n        /* \"#utility.yul\":5056:5076   */\n      tag_125\n        /* \"#utility.yul\":5074:5075   */\n      dup4\n        /* \"#utility.yul\":5056:5076   */\n      tag_46\n      jump\t// in\n    tag_125:\n        /* \"#utility.yul\":5051:5076   */\n      swap3\n      pop\n        /* \"#utility.yul\":5095:5096   */\n      dup3\n        /* \"#utility.yul\":5085:5120   */\n      tag_126\n      jumpi\n        /* \"#utility.yul\":5100:5118   */\n      tag_127\n      tag_61\n      jump\t// in\n    tag_127:\n        /* \"#utility.yul\":5085:5120   */\n    tag_126:\n        /* \"#utility.yul\":5142:5143   */\n      dup3\n        /* \"#utility.yul\":5139:5140   */\n      dup3\n        /* \"#utility.yul\":5135:5144   */\n      div\n        /* \"#utility.yul\":5130:5144   */\n      swap1\n      pop\n        /* \"#utility.yul\":4965:5150   */\n      swap3\n      swap2\n      pop\n      pop\n      jump\t// out\n        /* \"#utility.yul\":5156:5325   */\n    tag_62:\n        /* \"#utility.yul\":5240:5251   */\n      0x00\n        /* \"#utility.yul\":5274:5280   */\n      dup3\n        /* \"#utility.yul\":5269:5272   */\n      dup3\n        /* \"#utility.yul\":5262:5281   */\n      mstore\n        /* \"#utility.yul\":5314:5318   */\n      0x20\n        /* \"#utility.yul\":5309:5312   */\n      dup3\n        /* \"#utility.yul\":5305:5319   */\n      add\n        /* \"#utility.yul\":5290:5319   */\n      swap1\n      pop\n        /* \"#utility.yul\":5156:5325   */\n      swap3\n      swap2\n      pop\n      pop\n      jump\t// out\n        /* \"#utility.yul\":5331:5496   */\n    tag_63:\n        /* \"#utility.yul\":5471:5488   */\n      0x4e454544204d4f5245204d4f4e45590000000000000000000000000000000000\n        /* \"#utility.yul\":5467:5468   */\n      0x00\n        /* \"#utility.yul\":5459:5465   */\n      dup3\n        /* \"#utility.yul\":5455:5469   */\n      add\n        /* \"#utility.yul\":5448:5489   */\n      mstore\n        /* \"#utility.yul\":5331:5496   */\n      pop\n      jump\t// out\n        /* \"#utility.yul\":5502:5868   */\n    tag_64:\n        /* \"#utility.yul\":5644:5647   */\n      0x00\n        /* \"#utility.yul\":5665:5732   */\n      tag_131\n        /* \"#utility.yul\":5729:5731   */\n      0x0f\n        /* \"#utility.yul\":5724:5727   */\n      dup4\n        /* \"#utility.yul\":5665:5732   */\n      tag_62\n      jump\t// in\n    tag_131:\n        /* \"#utility.yul\":5658:5732   */\n      swap2\n      pop\n        /* \"#utility.yul\":5741:5834   */\n      tag_132\n        /* \"#utility.yul\":5830:5833   */\n      dup3\n        /* \"#utility.yul\":5741:5834   */\n      tag_63\n      jump\t// in\n    tag_132:\n        /* \"#utility.yul\":5859:5861   */\n      0x20\n        /* \"#utility.yul\":5854:5857   */\n      dup3\n        /* \"#utility.yul\":5850:5862   */\n      add\n        /* \"#utility.yul\":5843:5862   */\n      swap1\n      pop\n        /* \"#utility.yul\":5502:5868   */\n      swap2\n      swap1\n      pop\n      jump\t// out\n        /* \"#utility.yul\":5874:6293   */\n    tag_45:\n        /* \"#utility.yul\":6040:6044   */\n      0x00\n        /* \"#utility.yul\":6078:6080   */\n      0x20\n        /* \"#utility.yul\":6067:6076   */\n      dup3\n        /* \"#utility.yul\":6063:6081   */\n      add\n        /* \"#utility.yul\":6055:6081   */\n      swap1\n      pop\n        /* \"#utility.yul\":6127:6136   */\n      dup2\n        /* \"#utility.yul\":6121:6125   */\n      dup2\n        /* \"#utility.yul\":6117:6137   */\n      sub\n        /* \"#utility.yul\":6113:6114   */\n      0x00\n        /* \"#utility.yul\":6102:6111   */\n      dup4\n        /* \"#utility.yul\":6098:6115   */\n      add\n        /* \"#utility.yul\":6091:6138   */\n      mstore\n        /* \"#utility.yul\":6155:6286   */\n      tag_134\n        /* \"#utility.yul\":6281:6285   */\n      dup2\n        /* \"#utility.yul\":6155:6286   */\n      tag_64\n      jump\t// in\n    tag_134:\n        /* \"#utility.yul\":6147:6286   */\n      swap1\n      pop\n        /* \"#utility.yul\":5874:6293   */\n      swap2\n      swap1\n      pop\n      jump\t// out\n\n    auxdata: 0xa264697066735822122001430145af44eedad6dd1f501941b09cd1ca1bd8020ddc6972c8e042ce60f79764736f6c63430008080033\n}\n",
				"bytecode": {
					"linkReferences": {},
					"object": "608060405234801561001057600080fd5b506106af806100206000396000f3fe60806040526004361061004a5760003560e01c80630fcb59841461004f57806326121ff01461007a578063262f564b146100a5578063946644cd146100e2578063b60d42881461010d575b600080fd5b34801561005b57600080fd5b50610064610117565b604051610071919061027b565b60405180910390f35b34801561008657600080fd5b5061008f6101cf565b60405161009c919061027b565b60405180910390f35b3480156100b157600080fd5b506100cc60048036038101906100c791906102c7565b6101d5565b6040516100d9919061027b565b60405180910390f35b3480156100ee57600080fd5b506100f761020f565b604051610104919061027b565b60405180910390f35b610115610215565b005b60008073d4a33860578de61dbabdc8bfdb98fd742fa7028e905060008173ffffffffffffffffffffffffffffffffffffffff1663feaf968c6040518163ffffffff1660e01b815260040160a06040518083038186803b15801561017957600080fd5b505afa15801561018d573d6000803e3d6000fd5b505050506040513d601f19601f820116820180604052508101906101b19190610381565b5050509150506402540be400816101c8919061042b565b9250505090565b60015481565b6000806101e0610117565b90506000670de0b6b3a764000082856101f99190610542565b61020391906105cb565b90508092505050919050565b60005481565b670de0b6b3a7640000341015610260576040517f08c379a000000000000000000000000000000000000000000000000000000000815260040161025790610659565b60405180910390fd5b565b6000819050919050565b61027581610262565b82525050565b6000602082019050610290600083018461026c565b92915050565b600080fd5b6102a481610262565b81146102af57600080fd5b50565b6000813590506102c18161029b565b92915050565b6000602082840312156102dd576102dc610296565b5b60006102eb848285016102b2565b91505092915050565b600069ffffffffffffffffffff82169050919050565b610313816102f4565b811461031e57600080fd5b50565b6000815190506103308161030a565b92915050565b6000819050919050565b61034981610336565b811461035457600080fd5b50565b60008151905061036681610340565b92915050565b60008151905061037b8161029b565b92915050565b600080600080600060a0868803121561039d5761039c610296565b5b60006103ab88828901610321565b95505060206103bc88828901610357565b94505060406103cd8882890161036c565b93505060606103de8882890161036c565b92505060806103ef88828901610321565b9150509295509295909350565b7f4e487b7100000000000000000000000000000000000000000000000000000000600052601160045260246000fd5b600061043682610336565b915061044183610336565b9250827f7fffffffffffffffffffffffffffffffffffffffffffffffffffffffffffffff04821160008413600084131616156104805761047f6103fc565b5b817f800000000000000000000000000000000000000000000000000000000000000005831260008412600084131616156104bd576104bc6103fc565b5b827f800000000000000000000000000000000000000000000000000000000000000005821260008413600084121616156104fa576104f96103fc565b5b827f7fffffffffffffffffffffffffffffffffffffffffffffffffffffffffffffff0582126000841260008412161615610537576105366103fc565b5b828202905092915050565b600061054d82610262565b915061055883610262565b9250817fffffffffffffffffffffffffffffffffffffffffffffffffffffffffffffffff0483118215151615610591576105906103fc565b5b828202905092915050565b7f4e487b7100000000000000000000000000000000000000000000000000000000600052601260045260246000fd5b60006105d682610262565b91506105e183610262565b9250826105f1576105f061059c565b5b828204905092915050565b600082825260208201905092915050565b7f4e454544204d4f5245204d4f4e45590000000000000000000000000000000000600082015250565b6000610643600f836105fc565b915061064e8261060d565b602082019050919050565b6000602082019050818103600083015261067281610636565b905091905056fea264697066735822122001430145af44eedad6dd1f501941b09cd1ca1bd8020ddc6972c8e042ce60f79764736f6c63430008080033",
					"opcodes": "PUSH1 0x80 PUSH1 0x40 MSTORE CALLVALUE DUP1 ISZERO PUSH2 0x10 JUMPI PUSH1 0x0 DUP1 REVERT JUMPDEST POP PUSH2 0x6AF DUP1 PUSH2 0x20 PUSH1 0x0 CODECOPY PUSH1 0x0 RETURN INVALID PUSH1 0x80 PUSH1 0x40 MSTORE PUSH1 0x4 CALLDATASIZE LT PUSH2 0x4A JUMPI PUSH1 0x0 CALLDATALOAD PUSH1 0xE0 SHR DUP1 PUSH4 0xFCB5984 EQ PUSH2 0x4F JUMPI DUP1 PUSH4 0x26121FF0 EQ PUSH2 0x7A JUMPI DUP1 PUSH4 0x262F564B EQ PUSH2 0xA5 JUMPI DUP1 PUSH4 0x946644CD EQ PUSH2 0xE2 JUMPI DUP1 PUSH4 0xB60D4288 EQ PUSH2 0x10D JUMPI JUMPDEST PUSH1 0x0 DUP1 REVERT JUMPDEST CALLVALUE DUP1 ISZERO PUSH2 0x5B JUMPI PUSH1 0x0 DUP1 REVERT JUMPDEST POP PUSH2 0x64 PUSH2 0x117 JUMP JUMPDEST PUSH1 0x40 MLOAD PUSH2 0x71 SWAP2 SWAP1 PUSH2 0x27B JUMP JUMPDEST PUSH1 0x40 MLOAD DUP1 SWAP2 SUB SWAP1 RETURN JUMPDEST CALLVALUE DUP1 ISZERO PUSH2 0x86 JUMPI PUSH1 0x0 DUP1 REVERT JUMPDEST POP PUSH2 0x8F PUSH2 0x1CF JUMP JUMPDEST PUSH1 0x40 MLOAD PUSH2 0x9C SWAP2 SWAP1 PUSH2 0x27B JUMP JUMPDEST PUSH1 0x40 MLOAD DUP1 SWAP2 SUB SWAP1 RETURN JUMPDEST CALLVALUE DUP1 ISZERO PUSH2 0xB1 JUMPI PUSH1 0x0 DUP1 REVERT JUMPDEST POP PUSH2 0xCC PUSH1 0x4 DUP1 CALLDATASIZE SUB DUP2 ADD SWAP1 PUSH2 0xC7 SWAP2 SWAP1 PUSH2 0x2C7 JUMP JUMPDEST PUSH2 0x1D5 JUMP JUMPDEST PUSH1 0x40 MLOAD PUSH2 0xD9 SWAP2 SWAP1 PUSH2 0x27B JUMP JUMPDEST PUSH1 0x40 MLOAD DUP1 SWAP2 SUB SWAP1 RETURN JUMPDEST CALLVALUE DUP1 ISZERO PUSH2 0xEE JUMPI PUSH1 0x0 DUP1 REVERT JUMPDEST POP PUSH2 0xF7 PUSH2 0x20F JUMP JUMPDEST PUSH1 0x40 MLOAD PUSH2 0x104 SWAP2 SWAP1 PUSH2 0x27B JUMP JUMPDEST PUSH1 0x40 MLOAD DUP1 SWAP2 SUB SWAP1 RETURN JUMPDEST PUSH2 0x115 PUSH2 0x215 JUMP JUMPDEST STOP JUMPDEST PUSH1 0x0 DUP1 PUSH20 0xD4A33860578DE61DBABDC8BFDB98FD742FA7028E SWAP1 POP PUSH1 0x0 DUP2 PUSH20 0xFFFFFFFFFFFFFFFFFFFFFFFFFFFFFFFFFFFFFFFF AND PUSH4 0xFEAF968C PUSH1 0x40 MLOAD DUP2 PUSH4 0xFFFFFFFF AND PUSH1 0xE0 SHL DUP2 MSTORE PUSH1 0x4 ADD PUSH1 0xA0 PUSH1 0x40 MLOAD DUP1 DUP4 SUB DUP2 DUP7 DUP1 EXTCODESIZE ISZERO DUP1 ISZERO PUSH2 0x179 JUMPI PUSH1 0x0 DUP1 REVERT JUMPDEST POP GAS STATICCALL ISZERO DUP1 ISZERO PUSH2 0x18D JUMPI RETURNDATASIZE PUSH1 0x0 DUP1 RETURNDATACOPY RETURNDATASIZE PUSH1 0x0 REVERT JUMPDEST POP POP POP POP PUSH1 0x40 MLOAD RETURNDATASIZE PUSH1 0x1F NOT PUSH1 0x1F DUP3 ADD AND DUP3 ADD DUP1 PUSH1 0x40 MSTORE POP DUP2 ADD SWAP1 PUSH2 0x1B1 SWAP2 SWAP1 PUSH2 0x381 JUMP JUMPDEST POP POP POP SWAP2 POP POP PUSH5 0x2540BE400 DUP2 PUSH2 0x1C8 SWAP2 SWAP1 PUSH2 0x42B JUMP JUMPDEST SWAP3 POP POP POP SWAP1 JUMP JUMPDEST PUSH1 0x1 SLOAD DUP2 JUMP JUMPDEST PUSH1 0x0 DUP1 PUSH2 0x1E0 PUSH2 0x117 JUMP JUMPDEST SWAP1 POP PUSH1 0x0 PUSH8 0xDE0B6B3A7640000 DUP3 DUP6 PUSH2 0x1F9 SWAP2 SWAP1 PUSH2 0x542 JUMP JUMPDEST PUSH2 0x203 SWAP2 SWAP1 PUSH2 0x5CB JUMP JUMPDEST SWAP1 POP DUP1 SWAP3 POP POP POP SWAP2 SWAP1 POP JUMP JUMPDEST PUSH1 0x0 SLOAD DUP2 JUMP JUMPDEST PUSH8 0xDE0B6B3A7640000 CALLVALUE LT ISZERO PUSH2 0x260 JUMPI PUSH1 0x40 MLOAD PUSH32 0x8C379A000000000000000000000000000000000000000000000000000000000 DUP2 MSTORE PUSH1 0x4 ADD PUSH2 0x257 SWAP1 PUSH2 0x659 JUMP JUMPDEST PUSH1 0x40 MLOAD DUP1 SWAP2 SUB SWAP1 REVERT JUMPDEST JUMP JUMPDEST PUSH1 0x0 DUP2 SWAP1 POP SWAP2 SWAP1 POP JUMP JUMPDEST PUSH2 0x275 DUP2 PUSH2 0x262 JUMP JUMPDEST DUP3 MSTORE POP POP JUMP JUMPDEST PUSH1 0x0 PUSH1 0x20 DUP3 ADD SWAP1 POP PUSH2 0x290 PUSH1 0x0 DUP4 ADD DUP5 PUSH2 0x26C JUMP JUMPDEST SWAP3 SWAP2 POP POP JUMP JUMPDEST PUSH1 0x0 DUP1 REVERT JUMPDEST PUSH2 0x2A4 DUP2 PUSH2 0x262 JUMP JUMPDEST DUP2 EQ PUSH2 0x2AF JUMPI PUSH1 0x0 DUP1 REVERT JUMPDEST POP JUMP JUMPDEST PUSH1 0x0 DUP2 CALLDATALOAD SWAP1 POP PUSH2 0x2C1 DUP2 PUSH2 0x29B JUMP JUMPDEST SWAP3 SWAP2 POP POP JUMP JUMPDEST PUSH1 0x0 PUSH1 0x20 DUP3 DUP5 SUB SLT ISZERO PUSH2 0x2DD JUMPI PUSH2 0x2DC PUSH2 0x296 JUMP JUMPDEST JUMPDEST PUSH1 0x0 PUSH2 0x2EB DUP5 DUP3 DUP6 ADD PUSH2 0x2B2 JUMP JUMPDEST SWAP2 POP POP SWAP3 SWAP2 POP POP JUMP JUMPDEST PUSH1 0x0 PUSH10 0xFFFFFFFFFFFFFFFFFFFF DUP3 AND SWAP1 POP SWAP2 SWAP1 POP JUMP JUMPDEST PUSH2 0x313 DUP2 PUSH2 0x2F4 JUMP JUMPDEST DUP2 EQ PUSH2 0x31E JUMPI PUSH1 0x0 DUP1 REVERT JUMPDEST POP JUMP JUMPDEST PUSH1 0x0 DUP2 MLOAD SWAP1 POP PUSH2 0x330 DUP2 PUSH2 0x30A JUMP JUMPDEST SWAP3 SWAP2 POP POP JUMP JUMPDEST PUSH1 0x0 DUP2 SWAP1 POP SWAP2 SWAP1 POP JUMP JUMPDEST PUSH2 0x349 DUP2 PUSH2 0x336 JUMP JUMPDEST DUP2 EQ PUSH2 0x354 JUMPI PUSH1 0x0 DUP1 REVERT JUMPDEST POP JUMP JUMPDEST PUSH1 0x0 DUP2 MLOAD SWAP1 POP PUSH2 0x366 DUP2 PUSH2 0x340 JUMP JUMPDEST SWAP3 SWAP2 POP POP JUMP JUMPDEST PUSH1 0x0 DUP2 MLOAD SWAP1 POP PUSH2 0x37B DUP2 PUSH2 0x29B JUMP JUMPDEST SWAP3 SWAP2 POP POP JUMP JUMPDEST PUSH1 0x0 DUP1 PUSH1 0x0 DUP1 PUSH1 0x0 PUSH1 0xA0 DUP7 DUP9 SUB SLT ISZERO PUSH2 0x39D JUMPI PUSH2 0x39C PUSH2 0x296 JUMP JUMPDEST JUMPDEST PUSH1 0x0 PUSH2 0x3AB DUP9 DUP3 DUP10 ADD PUSH2 0x321 JUMP JUMPDEST SWAP6 POP POP PUSH1 0x20 PUSH2 0x3BC DUP9 DUP3 DUP10 ADD PUSH2 0x357 JUMP JUMPDEST SWAP5 POP POP PUSH1 0x40 PUSH2 0x3CD DUP9 DUP3 DUP10 ADD PUSH2 0x36C JUMP JUMPDEST SWAP4 POP POP PUSH1 0x60 PUSH2 0x3DE DUP9 DUP3 DUP10 ADD PUSH2 0x36C JUMP JUMPDEST SWAP3 POP POP PUSH1 0x80 PUSH2 0x3EF DUP9 DUP3 DUP10 ADD PUSH2 0x321 JUMP JUMPDEST SWAP2 POP POP SWAP3 SWAP6 POP SWAP3 SWAP6 SWAP1 SWAP4 POP JUMP JUMPDEST PUSH32 0x4E487B7100000000000000000000000000000000000000000000000000000000 PUSH1 0x0 MSTORE PUSH1 0x11 PUSH1 0x4 MSTORE PUSH1 0x24 PUSH1 0x0 REVERT JUMPDEST PUSH1 0x0 PUSH2 0x436 DUP3 PUSH2 0x336 JUMP JUMPDEST SWAP2 POP PUSH2 0x441 DUP4 PUSH2 0x336 JUMP JUMPDEST SWAP3 POP DUP3 PUSH32 0x7FFFFFFFFFFFFFFFFFFFFFFFFFFFFFFFFFFFFFFFFFFFFFFFFFFFFFFFFFFFFFFF DIV DUP3 GT PUSH1 0x0 DUP5 SGT PUSH1 0x0 DUP5 SGT AND AND ISZERO PUSH2 0x480 JUMPI PUSH2 0x47F PUSH2 0x3FC JUMP JUMPDEST JUMPDEST DUP2 PUSH32 0x8000000000000000000000000000000000000000000000000000000000000000 SDIV DUP4 SLT PUSH1 0x0 DUP5 SLT PUSH1 0x0 DUP5 SGT AND AND ISZERO PUSH2 0x4BD JUMPI PUSH2 0x4BC PUSH2 0x3FC JUMP JUMPDEST JUMPDEST DUP3 PUSH32 0x8000000000000000000000000000000000000000000000000000000000000000 SDIV DUP3 SLT PUSH1 0x0 DUP5 SGT PUSH1 0x0 DUP5 SLT AND AND ISZERO PUSH2 0x4FA JUMPI PUSH2 0x4F9 PUSH2 0x3FC JUMP JUMPDEST JUMPDEST DUP3 PUSH32 0x7FFFFFFFFFFFFFFFFFFFFFFFFFFFFFFFFFFFFFFFFFFFFFFFFFFFFFFFFFFFFFFF SDIV DUP3 SLT PUSH1 0x0 DUP5 SLT PUSH1 0x0 DUP5 SLT AND AND ISZERO PUSH2 0x537 JUMPI PUSH2 0x536 PUSH2 0x3FC JUMP JUMPDEST JUMPDEST DUP3 DUP3 MUL SWAP1 POP SWAP3 SWAP2 POP POP JUMP JUMPDEST PUSH1 0x0 PUSH2 0x54D DUP3 PUSH2 0x262 JUMP JUMPDEST SWAP2 POP PUSH2 0x558 DUP4 PUSH2 0x262 JUMP JUMPDEST SWAP3 POP DUP2 PUSH32 0xFFFFFFFFFFFFFFFFFFFFFFFFFFFFFFFFFFFFFFFFFFFFFFFFFFFFFFFFFFFFFFFF DIV DUP4 GT DUP3 ISZERO ISZERO AND ISZERO PUSH2 0x591 JUMPI PUSH2 0x590 PUSH2 0x3FC JUMP JUMPDEST JUMPDEST DUP3 DUP3 MUL SWAP1 POP SWAP3 SWAP2 POP POP JUMP JUMPDEST PUSH32 0x4E487B7100000000000000000000000000000000000000000000000000000000 PUSH1 0x0 MSTORE PUSH1 0x12 PUSH1 0x4 MSTORE PUSH1 0x24 PUSH1 0x0 REVERT JUMPDEST PUSH1 0x0 PUSH2 0x5D6 DUP3 PUSH2 0x262 JUMP JUMPDEST SWAP2 POP PUSH2 0x5E1 DUP4 PUSH2 0x262 JUMP JUMPDEST SWAP3 POP DUP3 PUSH2 0x5F1 JUMPI PUSH2 0x5F0 PUSH2 0x59C JUMP JUMPDEST JUMPDEST DUP3 DUP3 DIV SWAP1 POP SWAP3 SWAP2 POP POP JUMP JUMPDEST PUSH1 0x0 DUP3 DUP3 MSTORE PUSH1 0x20 DUP3 ADD SWAP1 POP SWAP3 SWAP2 POP POP JUMP JUMPDEST PUSH32 0x4E454544204D4F5245204D4F4E45590000000000000000000000000000000000 PUSH1 0x0 DUP3 ADD MSTORE POP JUMP JUMPDEST PUSH1 0x0 PUSH2 0x643 PUSH1 0xF DUP4 PUSH2 0x5FC JUMP JUMPDEST SWAP2 POP PUSH2 0x64E DUP3 PUSH2 0x60D JUMP JUMPDEST PUSH1 0x20 DUP3 ADD SWAP1 POP SWAP2 SWAP1 POP JUMP JUMPDEST PUSH1 0x0 PUSH1 0x20 DUP3 ADD SWAP1 POP DUP2 DUP2 SUB PUSH1 0x0 DUP4 ADD MSTORE PUSH2 0x672 DUP2 PUSH2 0x636 JUMP JUMPDEST SWAP1 POP SWAP2 SWAP1 POP JUMP INVALID LOG2 PUSH5 0x6970667358 0x22 SLT KECCAK256 ADD NUMBER ADD GASLIMIT 0xAF DIFFICULTY 0xEE 0xDA 0xD6 0xDD 0x1F POP NOT COINBASE 0xB0 SWAP13 0xD1 0xCA SHL 0xD8 MUL 0xD 0xDC PUSH10 0x72C8E042CE60F7976473 PUSH16 0x6C634300080800330000000000000000 "
				},
				"gasEstimates": {
					"creation": {
						"codeDepositCost": "342200",
						"executionCost": "380",
						"totalCost": "342580"
					},
					"external": {
						"f()": "2429",
						"fun()": "2473",
						"fund()": "500",
						"getconversionrate(uint256)": "infinite",
						"getprice()": "infinite"
					}
				},
				"methodIdentifiers": {
					"f()": "26121ff0",
					"fun()": "946644cd",
					"fund()": "b60d4288",
					"getconversionrate(uint256)": "262f564b",
					"getprice()": "0fcb5984"
				}
			},
			"storageLayout": {
				"storage": [
					{
						"astId": 50,
						"contract": "contracts/FundMe.sol:FundMe",
						"label": "fun",
						"offset": 0,
						"slot": "0",
						"type": "t_uint256"
					},
					{
						"astId": 52,
						"contract": "contracts/FundMe.sol:FundMe",
						"label": "f",
						"offset": 0,
						"slot": "1",
						"type": "t_uint256"
					}
				],
				"types": {
					"t_uint256": {
						"encoding": "inplace",
						"label": "uint256",
						"numberOfBytes": "32"
					}
				}
			},
			"userdoc": {
				"kind": "user",
				"methods": {},
				"version": 1
			}
		}
	}
}