{
	"contracts/FundMe.sol": {
		"FundMe": {
			"abi": [
				{
					"inputs": [],
					"stateMutability": "nonpayable",
					"type": "constructor"
				},
				{
					"inputs": [
						{
							"internalType": "address",
							"name": "",
							"type": "address"
						}
					],
					"name": "addresstoamtfunded",
					"outputs": [
						{
							"internalType": "uint256",
							"name": "",
							"type": "uint256"
						}
					],
					"stateMutability": "view",
					"type": "function"
				},
				{
					"inputs": [],
					"name": "f",
					"outputs": [
						{
							"internalType": "uint256",
							"name": "",
							"type": "uint256"
						}
					],
					"stateMutability": "view",
					"type": "function"
				},
				{
					"inputs": [],
					"name": "fun",
					"outputs": [
						{
							"internalType": "uint256",
							"name": "",
							"type": "uint256"
						}
					],
					"stateMutability": "view",
					"type": "function"
				},
				{
					"inputs": [],
					"name": "fund",
					"outputs": [],
					"stateMutability": "payable",
					"type": "function"
				},
				{
					"inputs": [
						{
							"internalType": "uint256",
							"name": "",
							"type": "uint256"
						}
					],
					"name": "funders",
					"outputs": [
						{
							"internalType": "address",
							"name": "",
							"type": "address"
						}
					],
					"stateMutability": "view",
					"type": "function"
				},
				{
					"inputs": [],
					"name": "minusd",
					"outputs": [
						{
							"internalType": "uint256",
							"name": "",
							"type": "uint256"
						}
					],
					"stateMutability": "view",
					"type": "function"
				},
				{
					"inputs": [],
					"name": "owner",
					"outputs": [
						{
							"internalType": "address",
							"name": "",
							"type": "address"
						}
					],
					"stateMutability": "view",
					"type": "function"
				},
				{
					"inputs": [],
					"name": "withdraw",
					"outputs": [],
					"stateMutability": "nonpayable",
					"type": "function"
				}
			],
			"devdoc": {
				"kind": "dev",
				"methods": {},
				"version": 1
			},
			"evm": {
				"assembly": "    /* \"contracts/FundMe.sol\":357:2748  contract FundMe{... */\n  mstore(0x40, 0x80)\n    /* \"contracts/FundMe.sol\":465:474  20 * 1e18 */\n  0x01158e460913d00000\n    /* \"contracts/FundMe.sol\":443:474  uint256 public minusd=20 * 1e18 */\n  0x01\n  sstore\n    /* \"contracts/FundMe.sol\":620:668  constructor(){... */\n  callvalue\n  dup1\n  iszero\n  tag_1\n  jumpi\n  0x00\n  dup1\n  revert\ntag_1:\n  pop\n    /* \"contracts/FundMe.sol\":650:660  msg.sender */\n  caller\n    /* \"contracts/FundMe.sol\":644:649  owner */\n  0x05\n  0x00\n    /* \"contracts/FundMe.sol\":644:660  owner=msg.sender */\n  0x0100\n  exp\n  dup2\n  sload\n  dup2\n  0xffffffffffffffffffffffffffffffffffffffff\n  mul\n  not\n  and\n  swap1\n  dup4\n  0xffffffffffffffffffffffffffffffffffffffff\n  and\n  mul\n  or\n  swap1\n  sstore\n  pop\n    /* \"contracts/FundMe.sol\":357:2748  contract FundMe{... */\n  dataSize(sub_0)\n  dup1\n  dataOffset(sub_0)\n  0x00\n  codecopy\n  0x00\n  return\nstop\n\nsub_0: assembly {\n        /* \"contracts/FundMe.sol\":357:2748  contract FundMe{... */\n      mstore(0x40, 0x80)\n      jumpi(tag_1, lt(calldatasize, 0x04))\n      shr(0xe0, calldataload(0x00))\n      dup1\n      0x8da5cb5b\n      gt\n      tag_10\n      jumpi\n      dup1\n      0x8da5cb5b\n      eq\n      tag_6\n      jumpi\n      dup1\n      0x946644cd\n      eq\n      tag_7\n      jumpi\n      dup1\n      0xb60d4288\n      eq\n      tag_8\n      jumpi\n      dup1\n      0xdc0d3dff\n      eq\n      tag_9\n      jumpi\n      jump(tag_1)\n    tag_10:\n      dup1\n      0x2578b86a\n      eq\n      tag_2\n      jumpi\n      dup1\n      0x26121ff0\n      eq\n      tag_3\n      jumpi\n      dup1\n      0x3ccfd60b\n      eq\n      tag_4\n      jumpi\n      dup1\n      0x5c7d08b5\n      eq\n      tag_5\n      jumpi\n    tag_1:\n      0x00\n      dup1\n      revert\n        /* \"contracts/FundMe.sol\":443:474  uint256 public minusd=20 * 1e18 */\n    tag_2:\n      callvalue\n      dup1\n      iszero\n      tag_11\n      jumpi\n      0x00\n      dup1\n      revert\n    tag_11:\n      pop\n      tag_12\n      tag_13\n      jump\t// in\n    tag_12:\n      mload(0x40)\n      tag_14\n      swap2\n      swap1\n      tag_15\n      jump\t// in\n    tag_14:\n      mload(0x40)\n      dup1\n      swap2\n      sub\n      swap1\n      return\n        /* \"contracts/FundMe.sol\":481:497  uint256 public f */\n    tag_3:\n      callvalue\n      dup1\n      iszero\n      tag_16\n      jumpi\n      0x00\n      dup1\n      revert\n    tag_16:\n      pop\n      tag_17\n      tag_18\n      jump\t// in\n    tag_17:\n      mload(0x40)\n      tag_19\n      swap2\n      swap1\n      tag_15\n      jump\t// in\n    tag_19:\n      mload(0x40)\n      dup1\n      swap2\n      sub\n      swap1\n      return\n        /* \"contracts/FundMe.sol\":1048:1714  function withdraw() public onlyowner{... */\n    tag_4:\n      callvalue\n      dup1\n      iszero\n      tag_20\n      jumpi\n      0x00\n      dup1\n      revert\n    tag_20:\n      pop\n      tag_21\n      tag_22\n      jump\t// in\n    tag_21:\n      stop\n        /* \"contracts/FundMe.sol\":504:555  mapping(address=>uint256) public addresstoamtfunded */\n    tag_5:\n      callvalue\n      dup1\n      iszero\n      tag_23\n      jumpi\n      0x00\n      dup1\n      revert\n    tag_23:\n      pop\n      tag_24\n      0x04\n      dup1\n      calldatasize\n      sub\n      dup2\n      add\n      swap1\n      tag_25\n      swap2\n      swap1\n      tag_26\n      jump\t// in\n    tag_25:\n      tag_27\n      jump\t// in\n    tag_24:\n      mload(0x40)\n      tag_28\n      swap2\n      swap1\n      tag_15\n      jump\t// in\n    tag_28:\n      mload(0x40)\n      dup1\n      swap2\n      sub\n      swap1\n      return\n        /* \"contracts/FundMe.sol\":593:613  address public owner */\n    tag_6:\n      callvalue\n      dup1\n      iszero\n      tag_29\n      jumpi\n      0x00\n      dup1\n      revert\n    tag_29:\n      pop\n      tag_30\n      tag_31\n      jump\t// in\n    tag_30:\n      mload(0x40)\n      tag_32\n      swap2\n      swap1\n      tag_33\n      jump\t// in\n    tag_32:\n      mload(0x40)\n      dup1\n      swap2\n      sub\n      swap1\n      return\n        /* \"contracts/FundMe.sol\":418:436  uint256 public fun */\n    tag_7:\n      callvalue\n      dup1\n      iszero\n      tag_34\n      jumpi\n      0x00\n      dup1\n      revert\n    tag_34:\n      pop\n      tag_35\n      tag_36\n      jump\t// in\n    tag_35:\n      mload(0x40)\n      tag_37\n      swap2\n      swap1\n      tag_15\n      jump\t// in\n    tag_37:\n      mload(0x40)\n      dup1\n      swap2\n      sub\n      swap1\n      return\n        /* \"contracts/FundMe.sol\":674:1042  function fund() public payable{... */\n    tag_8:\n      tag_38\n      tag_39\n      jump\t// in\n    tag_38:\n      stop\n        /* \"contracts/FundMe.sol\":562:586  address[] public funders */\n    tag_9:\n      callvalue\n      dup1\n      iszero\n      tag_40\n      jumpi\n      0x00\n      dup1\n      revert\n    tag_40:\n      pop\n      tag_41\n      0x04\n      dup1\n      calldatasize\n      sub\n      dup2\n      add\n      swap1\n      tag_42\n      swap2\n      swap1\n      tag_43\n      jump\t// in\n    tag_42:\n      tag_44\n      jump\t// in\n    tag_41:\n      mload(0x40)\n      tag_45\n      swap2\n      swap1\n      tag_33\n      jump\t// in\n    tag_45:\n      mload(0x40)\n      dup1\n      swap2\n      sub\n      swap1\n      return\n        /* \"contracts/FundMe.sol\":443:474  uint256 public minusd=20 * 1e18 */\n    tag_13:\n      sload(0x01)\n      dup2\n      jump\t// out\n        /* \"contracts/FundMe.sol\":481:497  uint256 public f */\n    tag_18:\n      sload(0x02)\n      dup2\n      jump\t// out\n        /* \"contracts/FundMe.sol\":1048:1714  function withdraw() public onlyowner{... */\n    tag_22:\n        /* \"contracts/FundMe.sol\":1772:1777  owner */\n      0x05\n      0x00\n      swap1\n      sload\n      swap1\n      0x0100\n      exp\n      swap1\n      div\n      0xffffffffffffffffffffffffffffffffffffffff\n      and\n        /* \"contracts/FundMe.sol\":1760:1777  msg.sender==owner */\n      0xffffffffffffffffffffffffffffffffffffffff\n      and\n        /* \"contracts/FundMe.sol\":1760:1770  msg.sender */\n      caller\n        /* \"contracts/FundMe.sol\":1760:1777  msg.sender==owner */\n      0xffffffffffffffffffffffffffffffffffffffff\n      and\n      eq\n        /* \"contracts/FundMe.sol\":1752:1801  require(msg.sender==owner,\"Not the right person\") */\n      tag_47\n      jumpi\n      mload(0x40)\n      0x08c379a000000000000000000000000000000000000000000000000000000000\n      dup2\n      mstore\n      0x04\n      add\n      tag_48\n      swap1\n      tag_49\n      jump\t// in\n    tag_48:\n      mload(0x40)\n      dup1\n      swap2\n      sub\n      swap1\n      revert\n    tag_47:\n        /* \"contracts/FundMe.sol\":1161:1170  uint256 i */\n      0x00\n        /* \"contracts/FundMe.sol\":1157:1289  for(uint256 i=0;i<funders.length;i++){... */\n    tag_51:\n        /* \"contracts/FundMe.sol\":1175:1182  funders */\n      0x04\n        /* \"contracts/FundMe.sol\":1175:1189  funders.length */\n      dup1\n      sload\n      swap1\n      pop\n        /* \"contracts/FundMe.sol\":1173:1174  i */\n      dup2\n        /* \"contracts/FundMe.sol\":1173:1189  i<funders.length */\n      lt\n        /* \"contracts/FundMe.sol\":1157:1289  for(uint256 i=0;i<funders.length;i++){... */\n      iszero\n      tag_52\n      jumpi\n        /* \"contracts/FundMe.sol\":1209:1223  address funder */\n      0x00\n        /* \"contracts/FundMe.sol\":1224:1231  funders */\n      0x04\n        /* \"contracts/FundMe.sol\":1232:1233  i */\n      dup3\n        /* \"contracts/FundMe.sol\":1224:1234  funders[i] */\n      dup2\n      sload\n      dup2\n      lt\n      tag_54\n      jumpi\n      tag_55\n      tag_56\n      jump\t// in\n    tag_55:\n    tag_54:\n      swap1\n      0x00\n      mstore\n      keccak256(0x00, 0x20)\n      add\n      0x00\n      swap1\n      sload\n      swap1\n      0x0100\n      exp\n      swap1\n      div\n      0xffffffffffffffffffffffffffffffffffffffff\n      and\n        /* \"contracts/FundMe.sol\":1209:1234  address funder=funders[i] */\n      swap1\n      pop\n        /* \"contracts/FundMe.sol\":1276:1277  0 */\n      0x00\n        /* \"contracts/FundMe.sol\":1249:1267  addresstoamtfunded */\n      0x03\n        /* \"contracts/FundMe.sol\":1249:1275  addresstoamtfunded[funder] */\n      0x00\n        /* \"contracts/FundMe.sol\":1268:1274  funder */\n      dup4\n        /* \"contracts/FundMe.sol\":1249:1275  addresstoamtfunded[funder] */\n      0xffffffffffffffffffffffffffffffffffffffff\n      and\n      0xffffffffffffffffffffffffffffffffffffffff\n      and\n      dup2\n      mstore\n      0x20\n      add\n      swap1\n      dup2\n      mstore\n      0x20\n      add\n      0x00\n      keccak256\n        /* \"contracts/FundMe.sol\":1249:1277  addresstoamtfunded[funder]=0 */\n      dup2\n      swap1\n      sstore\n      pop\n        /* \"contracts/FundMe.sol\":1194:1289  {... */\n      pop\n        /* \"contracts/FundMe.sol\":1190:1193  i++ */\n      dup1\n      dup1\n      tag_58\n      swap1\n      tag_59\n      jump\t// in\n    tag_58:\n      swap2\n      pop\n      pop\n        /* \"contracts/FundMe.sol\":1157:1289  for(uint256 i=0;i<funders.length;i++){... */\n      jump(tag_51)\n    tag_52:\n      pop\n        /* \"contracts/FundMe.sol\":1321:1322  0 */\n      0x00\n        /* \"contracts/FundMe.sol\":1307:1323  new address[](0) */\n      0xffffffffffffffff\n      dup2\n      gt\n      iszero\n      tag_60\n      jumpi\n      tag_61\n      tag_62\n      jump\t// in\n    tag_61:\n    tag_60:\n      mload(0x40)\n      swap1\n      dup1\n      dup3\n      mstore\n      dup1\n      0x20\n      mul\n      0x20\n      add\n      dup3\n      add\n      0x40\n      mstore\n      dup1\n      iszero\n      tag_63\n      jumpi\n      dup2\n      0x20\n      add\n      0x20\n      dup3\n      mul\n      dup1\n      calldatasize\n      dup4\n      calldatacopy\n      dup1\n      dup3\n      add\n      swap2\n      pop\n      pop\n      swap1\n      pop\n    tag_63:\n      pop\n        /* \"contracts/FundMe.sol\":1299:1306  funders */\n      0x04\n        /* \"contracts/FundMe.sol\":1299:1323  funders=new address[](0) */\n      swap1\n      dup1\n      mload\n      swap1\n      0x20\n      add\n      swap1\n      tag_64\n      swap3\n      swap2\n      swap1\n      tag_65\n      jump\t// in\n    tag_64:\n      pop\n        /* \"contracts/FundMe.sol\":1571:1583  bool success */\n      0x00\n        /* \"contracts/FundMe.sol\":1584:1609  bytes memory callreturned */\n      dup1\n        /* \"contracts/FundMe.sol\":1619:1629  msg.sender */\n      caller\n        /* \"contracts/FundMe.sol\":1611:1635  payable(msg.sender).call */\n      0xffffffffffffffffffffffffffffffffffffffff\n      and\n        /* \"contracts/FundMe.sol\":1643:1664  address(this).balance */\n      selfbalance\n        /* \"contracts/FundMe.sol\":1611:1669  payable(msg.sender).call{value: address(this).balance}(\"\") */\n      mload(0x40)\n      tag_66\n      swap1\n      tag_67\n      jump\t// in\n    tag_66:\n      0x00\n      mload(0x40)\n      dup1\n      dup4\n      sub\n      dup2\n      dup6\n      dup8\n      gas\n      call\n      swap3\n      pop\n      pop\n      pop\n      returndatasize\n      dup1\n      0x00\n      dup2\n      eq\n      tag_70\n      jumpi\n      mload(0x40)\n      swap2\n      pop\n      and(add(returndatasize, 0x3f), not(0x1f))\n      dup3\n      add\n      0x40\n      mstore\n      returndatasize\n      dup3\n      mstore\n      returndatasize\n      0x00\n      0x20\n      dup5\n      add\n      returndatacopy\n      jump(tag_69)\n    tag_70:\n      0x60\n      swap2\n      pop\n    tag_69:\n      pop\n        /* \"contracts/FundMe.sol\":1570:1669  (bool success,bytes memory callreturned)=payable(msg.sender).call{value: address(this).balance}(\"\") */\n      swap2\n      pop\n      swap2\n      pop\n        /* \"contracts/FundMe.sol\":1688:1695  success */\n      dup2\n        /* \"contracts/FundMe.sol\":1680:1705  require(success,\"Failed\") */\n      tag_71\n      jumpi\n      mload(0x40)\n      0x08c379a000000000000000000000000000000000000000000000000000000000\n      dup2\n      mstore\n      0x04\n      add\n      tag_72\n      swap1\n      tag_73\n      jump\t// in\n    tag_72:\n      mload(0x40)\n      dup1\n      swap2\n      sub\n      swap1\n      revert\n    tag_71:\n        /* \"contracts/FundMe.sol\":1084:1714  {... */\n      pop\n      pop\n        /* \"contracts/FundMe.sol\":1048:1714  function withdraw() public onlyowner{... */\n      jump\t// out\n        /* \"contracts/FundMe.sol\":504:555  mapping(address=>uint256) public addresstoamtfunded */\n    tag_27:\n      mstore(0x20, 0x03)\n      dup1\n      0x00\n      mstore\n      keccak256(0x00, 0x40)\n      0x00\n      swap2\n      pop\n      swap1\n      pop\n      sload\n      dup2\n      jump\t// out\n        /* \"contracts/FundMe.sol\":593:613  address public owner */\n    tag_31:\n      0x05\n      0x00\n      swap1\n      sload\n      swap1\n      0x0100\n      exp\n      swap1\n      div\n      0xffffffffffffffffffffffffffffffffffffffff\n      and\n      dup2\n      jump\t// out\n        /* \"contracts/FundMe.sol\":418:436  uint256 public fun */\n    tag_36:\n      sload(0x00)\n      dup2\n      jump\t// out\n        /* \"contracts/FundMe.sol\":674:1042  function fund() public payable{... */\n    tag_39:\n        /* \"contracts/FundMe.sol\":818:824  minusd */\n      sload(0x01)\n        /* \"contracts/FundMe.sol\":787:796  msg.value */\n      callvalue\n        /* \"contracts/FundMe.sol\":787:814  msg.value.getconversionrate */\n      linkerSymbol(\"970d497a1df28a900e3dd97e15a13b1baeeba470cc419874572e93617a0043b2\")\n      0x262f564b\n      swap1\n      swap2\n        /* \"contracts/FundMe.sol\":787:816  msg.value.getconversionrate() */\n      mload(0x40)\n      dup3\n      0xffffffff\n      and\n      0xe0\n      shl\n      dup2\n      mstore\n      0x04\n      add\n      tag_75\n      swap2\n      swap1\n      tag_76\n      jump\t// in\n    tag_75:\n      0x20\n      mload(0x40)\n      dup1\n      dup4\n      sub\n      dup2\n      dup7\n      dup1\n      extcodesize\n      iszero\n      dup1\n      iszero\n      tag_77\n      jumpi\n      0x00\n      dup1\n      revert\n    tag_77:\n      pop\n      gas\n      delegatecall\n      iszero\n      dup1\n      iszero\n      tag_79\n      jumpi\n      returndatasize\n      0x00\n      dup1\n      returndatacopy\n      revert(0x00, returndatasize)\n    tag_79:\n      pop\n      pop\n      pop\n      pop\n      mload(0x40)\n      returndatasize\n      not(0x1f)\n      0x1f\n      dup3\n      add\n      and\n      dup3\n      add\n      dup1\n      0x40\n      mstore\n      pop\n      dup2\n      add\n      swap1\n      tag_80\n      swap2\n      swap1\n      tag_81\n      jump\t// in\n    tag_80:\n        /* \"contracts/FundMe.sol\":787:824  msg.value.getconversionrate()>=minusd */\n      lt\n      iszero\n        /* \"contracts/FundMe.sol\":779:843  require(msg.value.getconversionrate()>=minusd,\"NEED MORE MONEY\") */\n      tag_82\n      jumpi\n      mload(0x40)\n      0x08c379a000000000000000000000000000000000000000000000000000000000\n      dup2\n      mstore\n      0x04\n      add\n      tag_83\n      swap1\n      tag_84\n      jump\t// in\n    tag_83:\n      mload(0x40)\n      dup1\n      swap2\n      sub\n      swap1\n      revert\n    tag_82:\n        /* \"contracts/FundMe.sol\":912:919  funders */\n      0x04\n        /* \"contracts/FundMe.sol\":925:935  msg.sender */\n      caller\n        /* \"contracts/FundMe.sol\":912:936  funders.push(msg.sender) */\n      swap1\n      dup1\n      0x01\n      dup2\n      sload\n      add\n      dup1\n      dup3\n      sstore\n      dup1\n      swap2\n      pop\n      pop\n      0x01\n      swap1\n      sub\n      swap1\n      0x00\n      mstore\n      keccak256(0x00, 0x20)\n      add\n      0x00\n      swap1\n      swap2\n      swap1\n      swap2\n      swap1\n      swap2\n      0x0100\n      exp\n      dup2\n      sload\n      dup2\n      0xffffffffffffffffffffffffffffffffffffffff\n      mul\n      not\n      and\n      swap1\n      dup4\n      0xffffffffffffffffffffffffffffffffffffffff\n      and\n      mul\n      or\n      swap1\n      sstore\n      pop\n        /* \"contracts/FundMe.sol\":978:987  msg.value */\n      callvalue\n        /* \"contracts/FundMe.sol\":947:965  addresstoamtfunded */\n      0x03\n        /* \"contracts/FundMe.sol\":947:977  addresstoamtfunded[msg.sender] */\n      0x00\n        /* \"contracts/FundMe.sol\":966:976  msg.sender */\n      caller\n        /* \"contracts/FundMe.sol\":947:977  addresstoamtfunded[msg.sender] */\n      0xffffffffffffffffffffffffffffffffffffffff\n      and\n      0xffffffffffffffffffffffffffffffffffffffff\n      and\n      dup2\n      mstore\n      0x20\n      add\n      swap1\n      dup2\n      mstore\n      0x20\n      add\n      0x00\n      keccak256\n        /* \"contracts/FundMe.sol\":947:987  addresstoamtfunded[msg.sender]=msg.value */\n      dup2\n      swap1\n      sstore\n      pop\n        /* \"contracts/FundMe.sol\":674:1042  function fund() public payable{... */\n      jump\t// out\n        /* \"contracts/FundMe.sol\":562:586  address[] public funders */\n    tag_44:\n      0x04\n      dup2\n      dup2\n      sload\n      dup2\n      lt\n      tag_86\n      jumpi\n      0x00\n      dup1\n      revert\n    tag_86:\n      swap1\n      0x00\n      mstore\n      keccak256(0x00, 0x20)\n      add\n      0x00\n      swap2\n      pop\n      sload\n      swap1\n      0x0100\n      exp\n      swap1\n      div\n      0xffffffffffffffffffffffffffffffffffffffff\n      and\n      dup2\n      jump\t// out\n    tag_65:\n      dup3\n      dup1\n      sload\n      dup3\n      dup3\n      sstore\n      swap1\n      0x00\n      mstore\n      keccak256(0x00, 0x20)\n      swap1\n      dup2\n      add\n      swap3\n      dup3\n      iszero\n      tag_88\n      jumpi\n      swap2\n      0x20\n      mul\n      dup3\n      add\n    tag_89:\n      dup3\n      dup2\n      gt\n      iszero\n      tag_90\n      jumpi\n      dup3\n      mload\n      dup3\n      exp(0x0100, 0x00)\n      dup2\n      sload\n      dup2\n      0xffffffffffffffffffffffffffffffffffffffff\n      mul\n      not\n      and\n      swap1\n      dup4\n      0xffffffffffffffffffffffffffffffffffffffff\n      and\n      mul\n      or\n      swap1\n      sstore\n      pop\n      swap2\n      0x20\n      add\n      swap2\n      swap1\n      0x01\n      add\n      swap1\n      jump(tag_89)\n    tag_90:\n    tag_88:\n      pop\n      swap1\n      pop\n      tag_91\n      swap2\n      swap1\n      tag_92\n      jump\t// in\n    tag_91:\n      pop\n      swap1\n      jump\t// out\n    tag_92:\n    tag_93:\n      dup1\n      dup3\n      gt\n      iszero\n      tag_94\n      jumpi\n      0x00\n      dup2\n      0x00\n      swap1\n      sstore\n      pop\n      0x01\n      add\n      jump(tag_93)\n    tag_94:\n      pop\n      swap1\n      jump\t// out\n        /* \"#utility.yul\":7:84   */\n    tag_95:\n        /* \"#utility.yul\":44:51   */\n      0x00\n        /* \"#utility.yul\":73:78   */\n      dup2\n        /* \"#utility.yul\":62:78   */\n      swap1\n      pop\n        /* \"#utility.yul\":7:84   */\n      swap2\n      swap1\n      pop\n      jump\t// out\n        /* \"#utility.yul\":90:208   */\n    tag_96:\n        /* \"#utility.yul\":177:201   */\n      tag_123\n        /* \"#utility.yul\":195:200   */\n      dup2\n        /* \"#utility.yul\":177:201   */\n      tag_95\n      jump\t// in\n    tag_123:\n        /* \"#utility.yul\":172:175   */\n      dup3\n        /* \"#utility.yul\":165:202   */\n      mstore\n        /* \"#utility.yul\":90:208   */\n      pop\n      pop\n      jump\t// out\n        /* \"#utility.yul\":214:436   */\n    tag_15:\n        /* \"#utility.yul\":307:311   */\n      0x00\n        /* \"#utility.yul\":345:347   */\n      0x20\n        /* \"#utility.yul\":334:343   */\n      dup3\n        /* \"#utility.yul\":330:348   */\n      add\n        /* \"#utility.yul\":322:348   */\n      swap1\n      pop\n        /* \"#utility.yul\":358:429   */\n      tag_125\n        /* \"#utility.yul\":426:427   */\n      0x00\n        /* \"#utility.yul\":415:424   */\n      dup4\n        /* \"#utility.yul\":411:428   */\n      add\n        /* \"#utility.yul\":402:408   */\n      dup5\n        /* \"#utility.yul\":358:429   */\n      tag_96\n      jump\t// in\n    tag_125:\n        /* \"#utility.yul\":214:436   */\n      swap3\n      swap2\n      pop\n      pop\n      jump\t// out\n        /* \"#utility.yul\":523:640   */\n    tag_98:\n        /* \"#utility.yul\":632:633   */\n      0x00\n        /* \"#utility.yul\":629:630   */\n      dup1\n        /* \"#utility.yul\":622:634   */\n      revert\n        /* \"#utility.yul\":769:895   */\n    tag_100:\n        /* \"#utility.yul\":806:813   */\n      0x00\n        /* \"#utility.yul\":846:888   */\n      0xffffffffffffffffffffffffffffffffffffffff\n        /* \"#utility.yul\":839:844   */\n      dup3\n        /* \"#utility.yul\":835:889   */\n      and\n        /* \"#utility.yul\":824:889   */\n      swap1\n      pop\n        /* \"#utility.yul\":769:895   */\n      swap2\n      swap1\n      pop\n      jump\t// out\n        /* \"#utility.yul\":901:997   */\n    tag_101:\n        /* \"#utility.yul\":938:945   */\n      0x00\n        /* \"#utility.yul\":967:991   */\n      tag_131\n        /* \"#utility.yul\":985:990   */\n      dup3\n        /* \"#utility.yul\":967:991   */\n      tag_100\n      jump\t// in\n    tag_131:\n        /* \"#utility.yul\":956:991   */\n      swap1\n      pop\n        /* \"#utility.yul\":901:997   */\n      swap2\n      swap1\n      pop\n      jump\t// out\n        /* \"#utility.yul\":1003:1125   */\n    tag_102:\n        /* \"#utility.yul\":1076:1100   */\n      tag_133\n        /* \"#utility.yul\":1094:1099   */\n      dup2\n        /* \"#utility.yul\":1076:1100   */\n      tag_101\n      jump\t// in\n    tag_133:\n        /* \"#utility.yul\":1069:1074   */\n      dup2\n        /* \"#utility.yul\":1066:1101   */\n      eq\n        /* \"#utility.yul\":1056:1119   */\n      tag_134\n      jumpi\n        /* \"#utility.yul\":1115:1116   */\n      0x00\n        /* \"#utility.yul\":1112:1113   */\n      dup1\n        /* \"#utility.yul\":1105:1117   */\n      revert\n        /* \"#utility.yul\":1056:1119   */\n    tag_134:\n        /* \"#utility.yul\":1003:1125   */\n      pop\n      jump\t// out\n        /* \"#utility.yul\":1131:1270   */\n    tag_103:\n        /* \"#utility.yul\":1177:1182   */\n      0x00\n        /* \"#utility.yul\":1215:1221   */\n      dup2\n        /* \"#utility.yul\":1202:1222   */\n      calldataload\n        /* \"#utility.yul\":1193:1222   */\n      swap1\n      pop\n        /* \"#utility.yul\":1231:1264   */\n      tag_136\n        /* \"#utility.yul\":1258:1263   */\n      dup2\n        /* \"#utility.yul\":1231:1264   */\n      tag_102\n      jump\t// in\n    tag_136:\n        /* \"#utility.yul\":1131:1270   */\n      swap3\n      swap2\n      pop\n      pop\n      jump\t// out\n        /* \"#utility.yul\":1276:1605   */\n    tag_26:\n        /* \"#utility.yul\":1335:1341   */\n      0x00\n        /* \"#utility.yul\":1384:1386   */\n      0x20\n        /* \"#utility.yul\":1372:1381   */\n      dup3\n        /* \"#utility.yul\":1363:1370   */\n      dup5\n        /* \"#utility.yul\":1359:1382   */\n      sub\n        /* \"#utility.yul\":1355:1387   */\n      slt\n        /* \"#utility.yul\":1352:1471   */\n      iszero\n      tag_138\n      jumpi\n        /* \"#utility.yul\":1390:1469   */\n      tag_139\n      tag_98\n      jump\t// in\n    tag_139:\n        /* \"#utility.yul\":1352:1471   */\n    tag_138:\n        /* \"#utility.yul\":1510:1511   */\n      0x00\n        /* \"#utility.yul\":1535:1588   */\n      tag_140\n        /* \"#utility.yul\":1580:1587   */\n      dup5\n        /* \"#utility.yul\":1571:1577   */\n      dup3\n        /* \"#utility.yul\":1560:1569   */\n      dup6\n        /* \"#utility.yul\":1556:1578   */\n      add\n        /* \"#utility.yul\":1535:1588   */\n      tag_103\n      jump\t// in\n    tag_140:\n        /* \"#utility.yul\":1525:1588   */\n      swap2\n      pop\n        /* \"#utility.yul\":1481:1598   */\n      pop\n        /* \"#utility.yul\":1276:1605   */\n      swap3\n      swap2\n      pop\n      pop\n      jump\t// out\n        /* \"#utility.yul\":1611:1729   */\n    tag_104:\n        /* \"#utility.yul\":1698:1722   */\n      tag_142\n        /* \"#utility.yul\":1716:1721   */\n      dup2\n        /* \"#utility.yul\":1698:1722   */\n      tag_101\n      jump\t// in\n    tag_142:\n        /* \"#utility.yul\":1693:1696   */\n      dup3\n        /* \"#utility.yul\":1686:1723   */\n      mstore\n        /* \"#utility.yul\":1611:1729   */\n      pop\n      pop\n      jump\t// out\n        /* \"#utility.yul\":1735:1957   */\n    tag_33:\n        /* \"#utility.yul\":1828:1832   */\n      0x00\n        /* \"#utility.yul\":1866:1868   */\n      0x20\n        /* \"#utility.yul\":1855:1864   */\n      dup3\n        /* \"#utility.yul\":1851:1869   */\n      add\n        /* \"#utility.yul\":1843:1869   */\n      swap1\n      pop\n        /* \"#utility.yul\":1879:1950   */\n      tag_144\n        /* \"#utility.yul\":1947:1948   */\n      0x00\n        /* \"#utility.yul\":1936:1945   */\n      dup4\n        /* \"#utility.yul\":1932:1949   */\n      add\n        /* \"#utility.yul\":1923:1929   */\n      dup5\n        /* \"#utility.yul\":1879:1950   */\n      tag_104\n      jump\t// in\n    tag_144:\n        /* \"#utility.yul\":1735:1957   */\n      swap3\n      swap2\n      pop\n      pop\n      jump\t// out\n        /* \"#utility.yul\":1963:2085   */\n    tag_105:\n        /* \"#utility.yul\":2036:2060   */\n      tag_146\n        /* \"#utility.yul\":2054:2059   */\n      dup2\n        /* \"#utility.yul\":2036:2060   */\n      tag_95\n      jump\t// in\n    tag_146:\n        /* \"#utility.yul\":2029:2034   */\n      dup2\n        /* \"#utility.yul\":2026:2061   */\n      eq\n        /* \"#utility.yul\":2016:2079   */\n      tag_147\n      jumpi\n        /* \"#utility.yul\":2075:2076   */\n      0x00\n        /* \"#utility.yul\":2072:2073   */\n      dup1\n        /* \"#utility.yul\":2065:2077   */\n      revert\n        /* \"#utility.yul\":2016:2079   */\n    tag_147:\n        /* \"#utility.yul\":1963:2085   */\n      pop\n      jump\t// out\n        /* \"#utility.yul\":2091:2230   */\n    tag_106:\n        /* \"#utility.yul\":2137:2142   */\n      0x00\n        /* \"#utility.yul\":2175:2181   */\n      dup2\n        /* \"#utility.yul\":2162:2182   */\n      calldataload\n        /* \"#utility.yul\":2153:2182   */\n      swap1\n      pop\n        /* \"#utility.yul\":2191:2224   */\n      tag_149\n        /* \"#utility.yul\":2218:2223   */\n      dup2\n        /* \"#utility.yul\":2191:2224   */\n      tag_105\n      jump\t// in\n    tag_149:\n        /* \"#utility.yul\":2091:2230   */\n      swap3\n      swap2\n      pop\n      pop\n      jump\t// out\n        /* \"#utility.yul\":2236:2565   */\n    tag_43:\n        /* \"#utility.yul\":2295:2301   */\n      0x00\n        /* \"#utility.yul\":2344:2346   */\n      0x20\n        /* \"#utility.yul\":2332:2341   */\n      dup3\n        /* \"#utility.yul\":2323:2330   */\n      dup5\n        /* \"#utility.yul\":2319:2342   */\n      sub\n        /* \"#utility.yul\":2315:2347   */\n      slt\n        /* \"#utility.yul\":2312:2431   */\n      iszero\n      tag_151\n      jumpi\n        /* \"#utility.yul\":2350:2429   */\n      tag_152\n      tag_98\n      jump\t// in\n    tag_152:\n        /* \"#utility.yul\":2312:2431   */\n    tag_151:\n        /* \"#utility.yul\":2470:2471   */\n      0x00\n        /* \"#utility.yul\":2495:2548   */\n      tag_153\n        /* \"#utility.yul\":2540:2547   */\n      dup5\n        /* \"#utility.yul\":2531:2537   */\n      dup3\n        /* \"#utility.yul\":2520:2529   */\n      dup6\n        /* \"#utility.yul\":2516:2538   */\n      add\n        /* \"#utility.yul\":2495:2548   */\n      tag_106\n      jump\t// in\n    tag_153:\n        /* \"#utility.yul\":2485:2548   */\n      swap2\n      pop\n        /* \"#utility.yul\":2441:2558   */\n      pop\n        /* \"#utility.yul\":2236:2565   */\n      swap3\n      swap2\n      pop\n      pop\n      jump\t// out\n        /* \"#utility.yul\":2571:2740   */\n    tag_107:\n        /* \"#utility.yul\":2655:2666   */\n      0x00\n        /* \"#utility.yul\":2689:2695   */\n      dup3\n        /* \"#utility.yul\":2684:2687   */\n      dup3\n        /* \"#utility.yul\":2677:2696   */\n      mstore\n        /* \"#utility.yul\":2729:2733   */\n      0x20\n        /* \"#utility.yul\":2724:2727   */\n      dup3\n        /* \"#utility.yul\":2720:2734   */\n      add\n        /* \"#utility.yul\":2705:2734   */\n      swap1\n      pop\n        /* \"#utility.yul\":2571:2740   */\n      swap3\n      swap2\n      pop\n      pop\n      jump\t// out\n        /* \"#utility.yul\":2746:2916   */\n    tag_108:\n        /* \"#utility.yul\":2886:2908   */\n      0x4e6f742074686520726967687420706572736f6e000000000000000000000000\n        /* \"#utility.yul\":2882:2883   */\n      0x00\n        /* \"#utility.yul\":2874:2880   */\n      dup3\n        /* \"#utility.yul\":2870:2884   */\n      add\n        /* \"#utility.yul\":2863:2909   */\n      mstore\n        /* \"#utility.yul\":2746:2916   */\n      pop\n      jump\t// out\n        /* \"#utility.yul\":2922:3288   */\n    tag_109:\n        /* \"#utility.yul\":3064:3067   */\n      0x00\n        /* \"#utility.yul\":3085:3152   */\n      tag_157\n        /* \"#utility.yul\":3149:3151   */\n      0x14\n        /* \"#utility.yul\":3144:3147   */\n      dup4\n        /* \"#utility.yul\":3085:3152   */\n      tag_107\n      jump\t// in\n    tag_157:\n        /* \"#utility.yul\":3078:3152   */\n      swap2\n      pop\n        /* \"#utility.yul\":3161:3254   */\n      tag_158\n        /* \"#utility.yul\":3250:3253   */\n      dup3\n        /* \"#utility.yul\":3161:3254   */\n      tag_108\n      jump\t// in\n    tag_158:\n        /* \"#utility.yul\":3279:3281   */\n      0x20\n        /* \"#utility.yul\":3274:3277   */\n      dup3\n        /* \"#utility.yul\":3270:3282   */\n      add\n        /* \"#utility.yul\":3263:3282   */\n      swap1\n      pop\n        /* \"#utility.yul\":2922:3288   */\n      swap2\n      swap1\n      pop\n      jump\t// out\n        /* \"#utility.yul\":3294:3713   */\n    tag_49:\n        /* \"#utility.yul\":3460:3464   */\n      0x00\n        /* \"#utility.yul\":3498:3500   */\n      0x20\n        /* \"#utility.yul\":3487:3496   */\n      dup3\n        /* \"#utility.yul\":3483:3501   */\n      add\n        /* \"#utility.yul\":3475:3501   */\n      swap1\n      pop\n        /* \"#utility.yul\":3547:3556   */\n      dup2\n        /* \"#utility.yul\":3541:3545   */\n      dup2\n        /* \"#utility.yul\":3537:3557   */\n      sub\n        /* \"#utility.yul\":3533:3534   */\n      0x00\n        /* \"#utility.yul\":3522:3531   */\n      dup4\n        /* \"#utility.yul\":3518:3535   */\n      add\n        /* \"#utility.yul\":3511:3558   */\n      mstore\n        /* \"#utility.yul\":3575:3706   */\n      tag_160\n        /* \"#utility.yul\":3701:3705   */\n      dup2\n        /* \"#utility.yul\":3575:3706   */\n      tag_109\n      jump\t// in\n    tag_160:\n        /* \"#utility.yul\":3567:3706   */\n      swap1\n      pop\n        /* \"#utility.yul\":3294:3713   */\n      swap2\n      swap1\n      pop\n      jump\t// out\n        /* \"#utility.yul\":3719:3899   */\n    tag_56:\n        /* \"#utility.yul\":3767:3844   */\n      0x4e487b7100000000000000000000000000000000000000000000000000000000\n        /* \"#utility.yul\":3764:3765   */\n      0x00\n        /* \"#utility.yul\":3757:3845   */\n      mstore\n        /* \"#utility.yul\":3864:3868   */\n      0x32\n        /* \"#utility.yul\":3861:3862   */\n      0x04\n        /* \"#utility.yul\":3854:3869   */\n      mstore\n        /* \"#utility.yul\":3888:3892   */\n      0x24\n        /* \"#utility.yul\":3885:3886   */\n      0x00\n        /* \"#utility.yul\":3878:3893   */\n      revert\n        /* \"#utility.yul\":3905:4085   */\n    tag_110:\n        /* \"#utility.yul\":3953:4030   */\n      0x4e487b7100000000000000000000000000000000000000000000000000000000\n        /* \"#utility.yul\":3950:3951   */\n      0x00\n        /* \"#utility.yul\":3943:4031   */\n      mstore\n        /* \"#utility.yul\":4050:4054   */\n      0x11\n        /* \"#utility.yul\":4047:4048   */\n      0x04\n        /* \"#utility.yul\":4040:4055   */\n      mstore\n        /* \"#utility.yul\":4074:4078   */\n      0x24\n        /* \"#utility.yul\":4071:4072   */\n      0x00\n        /* \"#utility.yul\":4064:4079   */\n      revert\n        /* \"#utility.yul\":4091:4324   */\n    tag_59:\n        /* \"#utility.yul\":4130:4133   */\n      0x00\n        /* \"#utility.yul\":4153:4177   */\n      tag_164\n        /* \"#utility.yul\":4171:4176   */\n      dup3\n        /* \"#utility.yul\":4153:4177   */\n      tag_95\n      jump\t// in\n    tag_164:\n        /* \"#utility.yul\":4144:4177   */\n      swap2\n      pop\n        /* \"#utility.yul\":4199:4265   */\n      0xffffffffffffffffffffffffffffffffffffffffffffffffffffffffffffffff\n        /* \"#utility.yul\":4192:4197   */\n      dup3\n        /* \"#utility.yul\":4189:4266   */\n      eq\n        /* \"#utility.yul\":4186:4289   */\n      iszero\n      tag_165\n      jumpi\n        /* \"#utility.yul\":4269:4287   */\n      tag_166\n      tag_110\n      jump\t// in\n    tag_166:\n        /* \"#utility.yul\":4186:4289   */\n    tag_165:\n        /* \"#utility.yul\":4316:4317   */\n      0x01\n        /* \"#utility.yul\":4309:4314   */\n      dup3\n        /* \"#utility.yul\":4305:4318   */\n      add\n        /* \"#utility.yul\":4298:4318   */\n      swap1\n      pop\n        /* \"#utility.yul\":4091:4324   */\n      swap2\n      swap1\n      pop\n      jump\t// out\n        /* \"#utility.yul\":4330:4510   */\n    tag_62:\n        /* \"#utility.yul\":4378:4455   */\n      0x4e487b7100000000000000000000000000000000000000000000000000000000\n        /* \"#utility.yul\":4375:4376   */\n      0x00\n        /* \"#utility.yul\":4368:4456   */\n      mstore\n        /* \"#utility.yul\":4475:4479   */\n      0x41\n        /* \"#utility.yul\":4472:4473   */\n      0x04\n        /* \"#utility.yul\":4465:4480   */\n      mstore\n        /* \"#utility.yul\":4499:4503   */\n      0x24\n        /* \"#utility.yul\":4496:4497   */\n      0x00\n        /* \"#utility.yul\":4489:4504   */\n      revert\n        /* \"#utility.yul\":4516:4663   */\n    tag_111:\n        /* \"#utility.yul\":4617:4628   */\n      0x00\n        /* \"#utility.yul\":4654:4657   */\n      dup2\n        /* \"#utility.yul\":4639:4657   */\n      swap1\n      pop\n        /* \"#utility.yul\":4516:4663   */\n      swap3\n      swap2\n      pop\n      pop\n      jump\t// out\n        /* \"#utility.yul\":4669:4783   */\n    tag_112:\n      pop\n      jump\t// out\n        /* \"#utility.yul\":4789:5187   */\n    tag_113:\n        /* \"#utility.yul\":4948:4951   */\n      0x00\n        /* \"#utility.yul\":4969:5052   */\n      tag_171\n        /* \"#utility.yul\":5050:5051   */\n      0x00\n        /* \"#utility.yul\":5045:5048   */\n      dup4\n        /* \"#utility.yul\":4969:5052   */\n      tag_111\n      jump\t// in\n    tag_171:\n        /* \"#utility.yul\":4962:5052   */\n      swap2\n      pop\n        /* \"#utility.yul\":5061:5154   */\n      tag_172\n        /* \"#utility.yul\":5150:5153   */\n      dup3\n        /* \"#utility.yul\":5061:5154   */\n      tag_112\n      jump\t// in\n    tag_172:\n        /* \"#utility.yul\":5179:5180   */\n      0x00\n        /* \"#utility.yul\":5174:5177   */\n      dup3\n        /* \"#utility.yul\":5170:5181   */\n      add\n        /* \"#utility.yul\":5163:5181   */\n      swap1\n      pop\n        /* \"#utility.yul\":4789:5187   */\n      swap2\n      swap1\n      pop\n      jump\t// out\n        /* \"#utility.yul\":5193:5572   */\n    tag_67:\n        /* \"#utility.yul\":5377:5380   */\n      0x00\n        /* \"#utility.yul\":5399:5546   */\n      tag_174\n        /* \"#utility.yul\":5542:5545   */\n      dup3\n        /* \"#utility.yul\":5399:5546   */\n      tag_113\n      jump\t// in\n    tag_174:\n        /* \"#utility.yul\":5392:5546   */\n      swap2\n      pop\n        /* \"#utility.yul\":5563:5566   */\n      dup2\n        /* \"#utility.yul\":5556:5566   */\n      swap1\n      pop\n        /* \"#utility.yul\":5193:5572   */\n      swap2\n      swap1\n      pop\n      jump\t// out\n        /* \"#utility.yul\":5578:5734   */\n    tag_114:\n        /* \"#utility.yul\":5718:5726   */\n      0x4661696c65640000000000000000000000000000000000000000000000000000\n        /* \"#utility.yul\":5714:5715   */\n      0x00\n        /* \"#utility.yul\":5706:5712   */\n      dup3\n        /* \"#utility.yul\":5702:5716   */\n      add\n        /* \"#utility.yul\":5695:5727   */\n      mstore\n        /* \"#utility.yul\":5578:5734   */\n      pop\n      jump\t// out\n        /* \"#utility.yul\":5740:6105   */\n    tag_115:\n        /* \"#utility.yul\":5882:5885   */\n      0x00\n        /* \"#utility.yul\":5903:5969   */\n      tag_177\n        /* \"#utility.yul\":5967:5968   */\n      0x06\n        /* \"#utility.yul\":5962:5965   */\n      dup4\n        /* \"#utility.yul\":5903:5969   */\n      tag_107\n      jump\t// in\n    tag_177:\n        /* \"#utility.yul\":5896:5969   */\n      swap2\n      pop\n        /* \"#utility.yul\":5978:6071   */\n      tag_178\n        /* \"#utility.yul\":6067:6070   */\n      dup3\n        /* \"#utility.yul\":5978:6071   */\n      tag_114\n      jump\t// in\n    tag_178:\n        /* \"#utility.yul\":6096:6098   */\n      0x20\n        /* \"#utility.yul\":6091:6094   */\n      dup3\n        /* \"#utility.yul\":6087:6099   */\n      add\n        /* \"#utility.yul\":6080:6099   */\n      swap1\n      pop\n        /* \"#utility.yul\":5740:6105   */\n      swap2\n      swap1\n      pop\n      jump\t// out\n        /* \"#utility.yul\":6111:6530   */\n    tag_73:\n        /* \"#utility.yul\":6277:6281   */\n      0x00\n        /* \"#utility.yul\":6315:6317   */\n      0x20\n        /* \"#utility.yul\":6304:6313   */\n      dup3\n        /* \"#utility.yul\":6300:6318   */\n      add\n        /* \"#utility.yul\":6292:6318   */\n      swap1\n      pop\n        /* \"#utility.yul\":6364:6373   */\n      dup2\n        /* \"#utility.yul\":6358:6362   */\n      dup2\n        /* \"#utility.yul\":6354:6374   */\n      sub\n        /* \"#utility.yul\":6350:6351   */\n      0x00\n        /* \"#utility.yul\":6339:6348   */\n      dup4\n        /* \"#utility.yul\":6335:6352   */\n      add\n        /* \"#utility.yul\":6328:6375   */\n      mstore\n        /* \"#utility.yul\":6392:6523   */\n      tag_180\n        /* \"#utility.yul\":6518:6522   */\n      dup2\n        /* \"#utility.yul\":6392:6523   */\n      tag_115\n      jump\t// in\n    tag_180:\n        /* \"#utility.yul\":6384:6523   */\n      swap1\n      pop\n        /* \"#utility.yul\":6111:6530   */\n      swap2\n      swap1\n      pop\n      jump\t// out\n        /* \"#utility.yul\":6536:6662   */\n    tag_116:\n        /* \"#utility.yul\":6631:6655   */\n      tag_182\n        /* \"#utility.yul\":6649:6654   */\n      dup2\n        /* \"#utility.yul\":6631:6655   */\n      tag_95\n      jump\t// in\n    tag_182:\n        /* \"#utility.yul\":6626:6629   */\n      dup3\n        /* \"#utility.yul\":6619:6656   */\n      mstore\n        /* \"#utility.yul\":6536:6662   */\n      pop\n      pop\n      jump\t// out\n        /* \"#utility.yul\":6668:6906   */\n    tag_76:\n        /* \"#utility.yul\":6769:6773   */\n      0x00\n        /* \"#utility.yul\":6807:6809   */\n      0x20\n        /* \"#utility.yul\":6796:6805   */\n      dup3\n        /* \"#utility.yul\":6792:6810   */\n      add\n        /* \"#utility.yul\":6784:6810   */\n      swap1\n      pop\n        /* \"#utility.yul\":6820:6899   */\n      tag_184\n        /* \"#utility.yul\":6896:6897   */\n      0x00\n        /* \"#utility.yul\":6885:6894   */\n      dup4\n        /* \"#utility.yul\":6881:6898   */\n      add\n        /* \"#utility.yul\":6872:6878   */\n      dup5\n        /* \"#utility.yul\":6820:6899   */\n      tag_116\n      jump\t// in\n    tag_184:\n        /* \"#utility.yul\":6668:6906   */\n      swap3\n      swap2\n      pop\n      pop\n      jump\t// out\n        /* \"#utility.yul\":6912:7055   */\n    tag_117:\n        /* \"#utility.yul\":6969:6974   */\n      0x00\n        /* \"#utility.yul\":7000:7006   */\n      dup2\n        /* \"#utility.yul\":6994:7007   */\n      mload\n        /* \"#utility.yul\":6985:7007   */\n      swap1\n      pop\n        /* \"#utility.yul\":7016:7049   */\n      tag_186\n        /* \"#utility.yul\":7043:7048   */\n      dup2\n        /* \"#utility.yul\":7016:7049   */\n      tag_105\n      jump\t// in\n    tag_186:\n        /* \"#utility.yul\":6912:7055   */\n      swap3\n      swap2\n      pop\n      pop\n      jump\t// out\n        /* \"#utility.yul\":7061:7412   */\n    tag_81:\n        /* \"#utility.yul\":7131:7137   */\n      0x00\n        /* \"#utility.yul\":7180:7182   */\n      0x20\n        /* \"#utility.yul\":7168:7177   */\n      dup3\n        /* \"#utility.yul\":7159:7166   */\n      dup5\n        /* \"#utility.yul\":7155:7178   */\n      sub\n        /* \"#utility.yul\":7151:7183   */\n      slt\n        /* \"#utility.yul\":7148:7267   */\n      iszero\n      tag_188\n      jumpi\n        /* \"#utility.yul\":7186:7265   */\n      tag_189\n      tag_98\n      jump\t// in\n    tag_189:\n        /* \"#utility.yul\":7148:7267   */\n    tag_188:\n        /* \"#utility.yul\":7306:7307   */\n      0x00\n        /* \"#utility.yul\":7331:7395   */\n      tag_190\n        /* \"#utility.yul\":7387:7394   */\n      dup5\n        /* \"#utility.yul\":7378:7384   */\n      dup3\n        /* \"#utility.yul\":7367:7376   */\n      dup6\n        /* \"#utility.yul\":7363:7385   */\n      add\n        /* \"#utility.yul\":7331:7395   */\n      tag_117\n      jump\t// in\n    tag_190:\n        /* \"#utility.yul\":7321:7395   */\n      swap2\n      pop\n        /* \"#utility.yul\":7277:7405   */\n      pop\n        /* \"#utility.yul\":7061:7412   */\n      swap3\n      swap2\n      pop\n      pop\n      jump\t// out\n        /* \"#utility.yul\":7418:7583   */\n    tag_118:\n        /* \"#utility.yul\":7558:7575   */\n      0x4e454544204d4f5245204d4f4e45590000000000000000000000000000000000\n        /* \"#utility.yul\":7554:7555   */\n      0x00\n        /* \"#utility.yul\":7546:7552   */\n      dup3\n        /* \"#utility.yul\":7542:7556   */\n      add\n        /* \"#utility.yul\":7535:7576   */\n      mstore\n        /* \"#utility.yul\":7418:7583   */\n      pop\n      jump\t// out\n        /* \"#utility.yul\":7589:7955   */\n    tag_119:\n        /* \"#utility.yul\":7731:7734   */\n      0x00\n        /* \"#utility.yul\":7752:7819   */\n      tag_193\n        /* \"#utility.yul\":7816:7818   */\n      0x0f\n        /* \"#utility.yul\":7811:7814   */\n      dup4\n        /* \"#utility.yul\":7752:7819   */\n      tag_107\n      jump\t// in\n    tag_193:\n        /* \"#utility.yul\":7745:7819   */\n      swap2\n      pop\n        /* \"#utility.yul\":7828:7921   */\n      tag_194\n        /* \"#utility.yul\":7917:7920   */\n      dup3\n        /* \"#utility.yul\":7828:7921   */\n      tag_118\n      jump\t// in\n    tag_194:\n        /* \"#utility.yul\":7946:7948   */\n      0x20\n        /* \"#utility.yul\":7941:7944   */\n      dup3\n        /* \"#utility.yul\":7937:7949   */\n      add\n        /* \"#utility.yul\":7930:7949   */\n      swap1\n      pop\n        /* \"#utility.yul\":7589:7955   */\n      swap2\n      swap1\n      pop\n      jump\t// out\n        /* \"#utility.yul\":7961:8380   */\n    tag_84:\n        /* \"#utility.yul\":8127:8131   */\n      0x00\n        /* \"#utility.yul\":8165:8167   */\n      0x20\n        /* \"#utility.yul\":8154:8163   */\n      dup3\n        /* \"#utility.yul\":8150:8168   */\n      add\n        /* \"#utility.yul\":8142:8168   */\n      swap1\n      pop\n        /* \"#utility.yul\":8214:8223   */\n      dup2\n        /* \"#utility.yul\":8208:8212   */\n      dup2\n        /* \"#utility.yul\":8204:8224   */\n      sub\n        /* \"#utility.yul\":8200:8201   */\n      0x00\n        /* \"#utility.yul\":8189:8198   */\n      dup4\n        /* \"#utility.yul\":8185:8202   */\n      add\n        /* \"#utility.yul\":8178:8225   */\n      mstore\n        /* \"#utility.yul\":8242:8373   */\n      tag_196\n        /* \"#utility.yul\":8368:8372   */\n      dup2\n        /* \"#utility.yul\":8242:8373   */\n      tag_119\n      jump\t// in\n    tag_196:\n        /* \"#utility.yul\":8234:8373   */\n      swap1\n      pop\n        /* \"#utility.yul\":7961:8380   */\n      swap2\n      swap1\n      pop\n      jump\t// out\n\n    auxdata: 0xa26469706673582212207de121285805e35b0f0e9bb9bf5d32495666078cab26c5b6e225c10adc53708964736f6c63430008080033\n}\n",
				"bytecode": {
					"linkReferences": {
						"contracts/PriceConverter.sol": {
							"PriceConverter": [
								{
									"length": 20,
									"start": 1242
								}
							]
						}
					},
					"object": "60806040526801158e460913d0000060015534801561001d57600080fd5b5033600560006101000a81548173ffffffffffffffffffffffffffffffffffffffff021916908373ffffffffffffffffffffffffffffffffffffffff160217905550610b1c8061006e6000396000f3fe60806040526004361061007b5760003560e01c80638da5cb5b1161004e5780638da5cb5b1461012a578063946644cd14610155578063b60d428814610180578063dc0d3dff1461018a5761007b565b80632578b86a1461008057806326121ff0146100ab5780633ccfd60b146100d65780635c7d08b5146100ed575b600080fd5b34801561008c57600080fd5b506100956101c7565b6040516100a291906106db565b60405180910390f35b3480156100b757600080fd5b506100c06101cd565b6040516100cd91906106db565b60405180910390f35b3480156100e257600080fd5b506100eb6101d3565b005b3480156100f957600080fd5b50610114600480360381019061010f9190610759565b610422565b60405161012191906106db565b60405180910390f35b34801561013657600080fd5b5061013f61043a565b60405161014c9190610795565b60405180910390f35b34801561016157600080fd5b5061016a610460565b60405161017791906106db565b60405180910390f35b610188610466565b005b34801561019657600080fd5b506101b160048036038101906101ac91906107dc565b6105dc565b6040516101be9190610795565b60405180910390f35b60015481565b60025481565b600560009054906101000a900473ffffffffffffffffffffffffffffffffffffffff1673ffffffffffffffffffffffffffffffffffffffff163373ffffffffffffffffffffffffffffffffffffffff1614610263576040517f08c379a000000000000000000000000000000000000000000000000000000000815260040161025a90610866565b60405180910390fd5b60005b60048054905081101561030f5760006004828154811061028957610288610886565b5b9060005260206000200160009054906101000a900473ffffffffffffffffffffffffffffffffffffffff1690506000600360008373ffffffffffffffffffffffffffffffffffffffff1673ffffffffffffffffffffffffffffffffffffffff16815260200190815260200160002081905550508080610307906108e4565b915050610266565b50600067ffffffffffffffff81111561032b5761032a61092d565b5b6040519080825280602002602001820160405280156103595781602001602082028036833780820191505090505b506004908051906020019061036f92919061061b565b506000803373ffffffffffffffffffffffffffffffffffffffff16476040516103979061098d565b60006040518083038185875af1925050503d80600081146103d4576040519150601f19603f3d011682016040523d82523d6000602084013e6103d9565b606091505b50915091508161041e576040517f08c379a0000000000000000000000000000000000000000000000000000000008152600401610415906109ee565b60405180910390fd5b5050565b60036020528060005260406000206000915090505481565b600560009054906101000a900473ffffffffffffffffffffffffffffffffffffffff1681565b60005481565b6001543473__$970d497a1df28a900e3dd97e15a13b1bae$__63262f564b90916040518263ffffffff1660e01b81526004016104a29190610a1d565b60206040518083038186803b1580156104ba57600080fd5b505af41580156104ce573d6000803e3d6000fd5b505050506040513d601f19601f820116820180604052508101906104f29190610a4d565b1015610533576040517f08c379a000000000000000000000000000000000000000000000000000000000815260040161052a90610ac6565b60405180910390fd5b6004339080600181540180825580915050600190039060005260206000200160009091909190916101000a81548173ffffffffffffffffffffffffffffffffffffffff021916908373ffffffffffffffffffffffffffffffffffffffff16021790555034600360003373ffffffffffffffffffffffffffffffffffffffff1673ffffffffffffffffffffffffffffffffffffffff16815260200190815260200160002081905550565b600481815481106105ec57600080fd5b906000526020600020016000915054906101000a900473ffffffffffffffffffffffffffffffffffffffff1681565b828054828255906000526020600020908101928215610694579160200282015b828111156106935782518260006101000a81548173ffffffffffffffffffffffffffffffffffffffff021916908373ffffffffffffffffffffffffffffffffffffffff1602179055509160200191906001019061063b565b5b5090506106a191906106a5565b5090565b5b808211156106be5760008160009055506001016106a6565b5090565b6000819050919050565b6106d5816106c2565b82525050565b60006020820190506106f060008301846106cc565b92915050565b600080fd5b600073ffffffffffffffffffffffffffffffffffffffff82169050919050565b6000610726826106fb565b9050919050565b6107368161071b565b811461074157600080fd5b50565b6000813590506107538161072d565b92915050565b60006020828403121561076f5761076e6106f6565b5b600061077d84828501610744565b91505092915050565b61078f8161071b565b82525050565b60006020820190506107aa6000830184610786565b92915050565b6107b9816106c2565b81146107c457600080fd5b50565b6000813590506107d6816107b0565b92915050565b6000602082840312156107f2576107f16106f6565b5b6000610800848285016107c7565b91505092915050565b600082825260208201905092915050565b7f4e6f742074686520726967687420706572736f6e000000000000000000000000600082015250565b6000610850601483610809565b915061085b8261081a565b602082019050919050565b6000602082019050818103600083015261087f81610843565b9050919050565b7f4e487b7100000000000000000000000000000000000000000000000000000000600052603260045260246000fd5b7f4e487b7100000000000000000000000000000000000000000000000000000000600052601160045260246000fd5b60006108ef826106c2565b91507fffffffffffffffffffffffffffffffffffffffffffffffffffffffffffffffff821415610922576109216108b5565b5b600182019050919050565b7f4e487b7100000000000000000000000000000000000000000000000000000000600052604160045260246000fd5b600081905092915050565b50565b600061097760008361095c565b915061098282610967565b600082019050919050565b60006109988261096a565b9150819050919050565b7f4661696c65640000000000000000000000000000000000000000000000000000600082015250565b60006109d8600683610809565b91506109e3826109a2565b602082019050919050565b60006020820190508181036000830152610a07816109cb565b9050919050565b610a17816106c2565b82525050565b6000602082019050610a326000830184610a0e565b92915050565b600081519050610a47816107b0565b92915050565b600060208284031215610a6357610a626106f6565b5b6000610a7184828501610a38565b91505092915050565b7f4e454544204d4f5245204d4f4e45590000000000000000000000000000000000600082015250565b6000610ab0600f83610809565b9150610abb82610a7a565b602082019050919050565b60006020820190508181036000830152610adf81610aa3565b905091905056fea26469706673582212207de121285805e35b0f0e9bb9bf5d32495666078cab26c5b6e225c10adc53708964736f6c63430008080033",
					"opcodes": "PUSH1 0x80 PUSH1 0x40 MSTORE PUSH9 0x1158E460913D00000 PUSH1 0x1 SSTORE CALLVALUE DUP1 ISZERO PUSH2 0x1D JUMPI PUSH1 0x0 DUP1 REVERT JUMPDEST POP CALLER PUSH1 0x5 PUSH1 0x0 PUSH2 0x100 EXP DUP2 SLOAD DUP2 PUSH20 0xFFFFFFFFFFFFFFFFFFFFFFFFFFFFFFFFFFFFFFFF MUL NOT AND SWAP1 DUP4 PUSH20 0xFFFFFFFFFFFFFFFFFFFFFFFFFFFFFFFFFFFFFFFF AND MUL OR SWAP1 SSTORE POP PUSH2 0xB1C DUP1 PUSH2 0x6E PUSH1 0x0 CODECOPY PUSH1 0x0 RETURN INVALID PUSH1 0x80 PUSH1 0x40 MSTORE PUSH1 0x4 CALLDATASIZE LT PUSH2 0x7B JUMPI PUSH1 0x0 CALLDATALOAD PUSH1 0xE0 SHR DUP1 PUSH4 0x8DA5CB5B GT PUSH2 0x4E JUMPI DUP1 PUSH4 0x8DA5CB5B EQ PUSH2 0x12A JUMPI DUP1 PUSH4 0x946644CD EQ PUSH2 0x155 JUMPI DUP1 PUSH4 0xB60D4288 EQ PUSH2 0x180 JUMPI DUP1 PUSH4 0xDC0D3DFF EQ PUSH2 0x18A JUMPI PUSH2 0x7B JUMP JUMPDEST DUP1 PUSH4 0x2578B86A EQ PUSH2 0x80 JUMPI DUP1 PUSH4 0x26121FF0 EQ PUSH2 0xAB JUMPI DUP1 PUSH4 0x3CCFD60B EQ PUSH2 0xD6 JUMPI DUP1 PUSH4 0x5C7D08B5 EQ PUSH2 0xED JUMPI JUMPDEST PUSH1 0x0 DUP1 REVERT JUMPDEST CALLVALUE DUP1 ISZERO PUSH2 0x8C JUMPI PUSH1 0x0 DUP1 REVERT JUMPDEST POP PUSH2 0x95 PUSH2 0x1C7 JUMP JUMPDEST PUSH1 0x40 MLOAD PUSH2 0xA2 SWAP2 SWAP1 PUSH2 0x6DB JUMP JUMPDEST PUSH1 0x40 MLOAD DUP1 SWAP2 SUB SWAP1 RETURN JUMPDEST CALLVALUE DUP1 ISZERO PUSH2 0xB7 JUMPI PUSH1 0x0 DUP1 REVERT JUMPDEST POP PUSH2 0xC0 PUSH2 0x1CD JUMP JUMPDEST PUSH1 0x40 MLOAD PUSH2 0xCD SWAP2 SWAP1 PUSH2 0x6DB JUMP JUMPDEST PUSH1 0x40 MLOAD DUP1 SWAP2 SUB SWAP1 RETURN JUMPDEST CALLVALUE DUP1 ISZERO PUSH2 0xE2 JUMPI PUSH1 0x0 DUP1 REVERT JUMPDEST POP PUSH2 0xEB PUSH2 0x1D3 JUMP JUMPDEST STOP JUMPDEST CALLVALUE DUP1 ISZERO PUSH2 0xF9 JUMPI PUSH1 0x0 DUP1 REVERT JUMPDEST POP PUSH2 0x114 PUSH1 0x4 DUP1 CALLDATASIZE SUB DUP2 ADD SWAP1 PUSH2 0x10F SWAP2 SWAP1 PUSH2 0x759 JUMP JUMPDEST PUSH2 0x422 JUMP JUMPDEST PUSH1 0x40 MLOAD PUSH2 0x121 SWAP2 SWAP1 PUSH2 0x6DB JUMP JUMPDEST PUSH1 0x40 MLOAD DUP1 SWAP2 SUB SWAP1 RETURN JUMPDEST CALLVALUE DUP1 ISZERO PUSH2 0x136 JUMPI PUSH1 0x0 DUP1 REVERT JUMPDEST POP PUSH2 0x13F PUSH2 0x43A JUMP JUMPDEST PUSH1 0x40 MLOAD PUSH2 0x14C SWAP2 SWAP1 PUSH2 0x795 JUMP JUMPDEST PUSH1 0x40 MLOAD DUP1 SWAP2 SUB SWAP1 RETURN JUMPDEST CALLVALUE DUP1 ISZERO PUSH2 0x161 JUMPI PUSH1 0x0 DUP1 REVERT JUMPDEST POP PUSH2 0x16A PUSH2 0x460 JUMP JUMPDEST PUSH1 0x40 MLOAD PUSH2 0x177 SWAP2 SWAP1 PUSH2 0x6DB JUMP JUMPDEST PUSH1 0x40 MLOAD DUP1 SWAP2 SUB SWAP1 RETURN JUMPDEST PUSH2 0x188 PUSH2 0x466 JUMP JUMPDEST STOP JUMPDEST CALLVALUE DUP1 ISZERO PUSH2 0x196 JUMPI PUSH1 0x0 DUP1 REVERT JUMPDEST POP PUSH2 0x1B1 PUSH1 0x4 DUP1 CALLDATASIZE SUB DUP2 ADD SWAP1 PUSH2 0x1AC SWAP2 SWAP1 PUSH2 0x7DC JUMP JUMPDEST PUSH2 0x5DC JUMP JUMPDEST PUSH1 0x40 MLOAD PUSH2 0x1BE SWAP2 SWAP1 PUSH2 0x795 JUMP JUMPDEST PUSH1 0x40 MLOAD DUP1 SWAP2 SUB SWAP1 RETURN JUMPDEST PUSH1 0x1 SLOAD DUP2 JUMP JUMPDEST PUSH1 0x2 SLOAD DUP2 JUMP JUMPDEST PUSH1 0x5 PUSH1 0x0 SWAP1 SLOAD SWAP1 PUSH2 0x100 EXP SWAP1 DIV PUSH20 0xFFFFFFFFFFFFFFFFFFFFFFFFFFFFFFFFFFFFFFFF AND PUSH20 0xFFFFFFFFFFFFFFFFFFFFFFFFFFFFFFFFFFFFFFFF AND CALLER PUSH20 0xFFFFFFFFFFFFFFFFFFFFFFFFFFFFFFFFFFFFFFFF AND EQ PUSH2 0x263 JUMPI PUSH1 0x40 MLOAD PUSH32 0x8C379A000000000000000000000000000000000000000000000000000000000 DUP2 MSTORE PUSH1 0x4 ADD PUSH2 0x25A SWAP1 PUSH2 0x866 JUMP JUMPDEST PUSH1 0x40 MLOAD DUP1 SWAP2 SUB SWAP1 REVERT JUMPDEST PUSH1 0x0 JUMPDEST PUSH1 0x4 DUP1 SLOAD SWAP1 POP DUP2 LT ISZERO PUSH2 0x30F JUMPI PUSH1 0x0 PUSH1 0x4 DUP3 DUP2 SLOAD DUP2 LT PUSH2 0x289 JUMPI PUSH2 0x288 PUSH2 0x886 JUMP JUMPDEST JUMPDEST SWAP1 PUSH1 0x0 MSTORE PUSH1 0x20 PUSH1 0x0 KECCAK256 ADD PUSH1 0x0 SWAP1 SLOAD SWAP1 PUSH2 0x100 EXP SWAP1 DIV PUSH20 0xFFFFFFFFFFFFFFFFFFFFFFFFFFFFFFFFFFFFFFFF AND SWAP1 POP PUSH1 0x0 PUSH1 0x3 PUSH1 0x0 DUP4 PUSH20 0xFFFFFFFFFFFFFFFFFFFFFFFFFFFFFFFFFFFFFFFF AND PUSH20 0xFFFFFFFFFFFFFFFFFFFFFFFFFFFFFFFFFFFFFFFF AND DUP2 MSTORE PUSH1 0x20 ADD SWAP1 DUP2 MSTORE PUSH1 0x20 ADD PUSH1 0x0 KECCAK256 DUP2 SWAP1 SSTORE POP POP DUP1 DUP1 PUSH2 0x307 SWAP1 PUSH2 0x8E4 JUMP JUMPDEST SWAP2 POP POP PUSH2 0x266 JUMP JUMPDEST POP PUSH1 0x0 PUSH8 0xFFFFFFFFFFFFFFFF DUP2 GT ISZERO PUSH2 0x32B JUMPI PUSH2 0x32A PUSH2 0x92D JUMP JUMPDEST JUMPDEST PUSH1 0x40 MLOAD SWAP1 DUP1 DUP3 MSTORE DUP1 PUSH1 0x20 MUL PUSH1 0x20 ADD DUP3 ADD PUSH1 0x40 MSTORE DUP1 ISZERO PUSH2 0x359 JUMPI DUP2 PUSH1 0x20 ADD PUSH1 0x20 DUP3 MUL DUP1 CALLDATASIZE DUP4 CALLDATACOPY DUP1 DUP3 ADD SWAP2 POP POP SWAP1 POP JUMPDEST POP PUSH1 0x4 SWAP1 DUP1 MLOAD SWAP1 PUSH1 0x20 ADD SWAP1 PUSH2 0x36F SWAP3 SWAP2 SWAP1 PUSH2 0x61B JUMP JUMPDEST POP PUSH1 0x0 DUP1 CALLER PUSH20 0xFFFFFFFFFFFFFFFFFFFFFFFFFFFFFFFFFFFFFFFF AND SELFBALANCE PUSH1 0x40 MLOAD PUSH2 0x397 SWAP1 PUSH2 0x98D JUMP JUMPDEST PUSH1 0x0 PUSH1 0x40 MLOAD DUP1 DUP4 SUB DUP2 DUP6 DUP8 GAS CALL SWAP3 POP POP POP RETURNDATASIZE DUP1 PUSH1 0x0 DUP2 EQ PUSH2 0x3D4 JUMPI PUSH1 0x40 MLOAD SWAP2 POP PUSH1 0x1F NOT PUSH1 0x3F RETURNDATASIZE ADD AND DUP3 ADD PUSH1 0x40 MSTORE RETURNDATASIZE DUP3 MSTORE RETURNDATASIZE PUSH1 0x0 PUSH1 0x20 DUP5 ADD RETURNDATACOPY PUSH2 0x3D9 JUMP JUMPDEST PUSH1 0x60 SWAP2 POP JUMPDEST POP SWAP2 POP SWAP2 POP DUP2 PUSH2 0x41E JUMPI PUSH1 0x40 MLOAD PUSH32 0x8C379A000000000000000000000000000000000000000000000000000000000 DUP2 MSTORE PUSH1 0x4 ADD PUSH2 0x415 SWAP1 PUSH2 0x9EE JUMP JUMPDEST PUSH1 0x40 MLOAD DUP1 SWAP2 SUB SWAP1 REVERT JUMPDEST POP POP JUMP JUMPDEST PUSH1 0x3 PUSH1 0x20 MSTORE DUP1 PUSH1 0x0 MSTORE PUSH1 0x40 PUSH1 0x0 KECCAK256 PUSH1 0x0 SWAP2 POP SWAP1 POP SLOAD DUP2 JUMP JUMPDEST PUSH1 0x5 PUSH1 0x0 SWAP1 SLOAD SWAP1 PUSH2 0x100 EXP SWAP1 DIV PUSH20 0xFFFFFFFFFFFFFFFFFFFFFFFFFFFFFFFFFFFFFFFF AND DUP2 JUMP JUMPDEST PUSH1 0x0 SLOAD DUP2 JUMP JUMPDEST PUSH1 0x1 SLOAD CALLVALUE PUSH20 0x0 PUSH4 0x262F564B SWAP1 SWAP2 PUSH1 0x40 MLOAD DUP3 PUSH4 0xFFFFFFFF AND PUSH1 0xE0 SHL DUP2 MSTORE PUSH1 0x4 ADD PUSH2 0x4A2 SWAP2 SWAP1 PUSH2 0xA1D JUMP JUMPDEST PUSH1 0x20 PUSH1 0x40 MLOAD DUP1 DUP4 SUB DUP2 DUP7 DUP1 EXTCODESIZE ISZERO DUP1 ISZERO PUSH2 0x4BA JUMPI PUSH1 0x0 DUP1 REVERT JUMPDEST POP GAS DELEGATECALL ISZERO DUP1 ISZERO PUSH2 0x4CE JUMPI RETURNDATASIZE PUSH1 0x0 DUP1 RETURNDATACOPY RETURNDATASIZE PUSH1 0x0 REVERT JUMPDEST POP POP POP POP PUSH1 0x40 MLOAD RETURNDATASIZE PUSH1 0x1F NOT PUSH1 0x1F DUP3 ADD AND DUP3 ADD DUP1 PUSH1 0x40 MSTORE POP DUP2 ADD SWAP1 PUSH2 0x4F2 SWAP2 SWAP1 PUSH2 0xA4D JUMP JUMPDEST LT ISZERO PUSH2 0x533 JUMPI PUSH1 0x40 MLOAD PUSH32 0x8C379A000000000000000000000000000000000000000000000000000000000 DUP2 MSTORE PUSH1 0x4 ADD PUSH2 0x52A SWAP1 PUSH2 0xAC6 JUMP JUMPDEST PUSH1 0x40 MLOAD DUP1 SWAP2 SUB SWAP1 REVERT JUMPDEST PUSH1 0x4 CALLER SWAP1 DUP1 PUSH1 0x1 DUP2 SLOAD ADD DUP1 DUP3 SSTORE DUP1 SWAP2 POP POP PUSH1 0x1 SWAP1 SUB SWAP1 PUSH1 0x0 MSTORE PUSH1 0x20 PUSH1 0x0 KECCAK256 ADD PUSH1 0x0 SWAP1 SWAP2 SWAP1 SWAP2 SWAP1 SWAP2 PUSH2 0x100 EXP DUP2 SLOAD DUP2 PUSH20 0xFFFFFFFFFFFFFFFFFFFFFFFFFFFFFFFFFFFFFFFF MUL NOT AND SWAP1 DUP4 PUSH20 0xFFFFFFFFFFFFFFFFFFFFFFFFFFFFFFFFFFFFFFFF AND MUL OR SWAP1 SSTORE POP CALLVALUE PUSH1 0x3 PUSH1 0x0 CALLER PUSH20 0xFFFFFFFFFFFFFFFFFFFFFFFFFFFFFFFFFFFFFFFF AND PUSH20 0xFFFFFFFFFFFFFFFFFFFFFFFFFFFFFFFFFFFFFFFF AND DUP2 MSTORE PUSH1 0x20 ADD SWAP1 DUP2 MSTORE PUSH1 0x20 ADD PUSH1 0x0 KECCAK256 DUP2 SWAP1 SSTORE POP JUMP JUMPDEST PUSH1 0x4 DUP2 DUP2 SLOAD DUP2 LT PUSH2 0x5EC JUMPI PUSH1 0x0 DUP1 REVERT JUMPDEST SWAP1 PUSH1 0x0 MSTORE PUSH1 0x20 PUSH1 0x0 KECCAK256 ADD PUSH1 0x0 SWAP2 POP SLOAD SWAP1 PUSH2 0x100 EXP SWAP1 DIV PUSH20 0xFFFFFFFFFFFFFFFFFFFFFFFFFFFFFFFFFFFFFFFF AND DUP2 JUMP JUMPDEST DUP3 DUP1 SLOAD DUP3 DUP3 SSTORE SWAP1 PUSH1 0x0 MSTORE PUSH1 0x20 PUSH1 0x0 KECCAK256 SWAP1 DUP2 ADD SWAP3 DUP3 ISZERO PUSH2 0x694 JUMPI SWAP2 PUSH1 0x20 MUL DUP3 ADD JUMPDEST DUP3 DUP2 GT ISZERO PUSH2 0x693 JUMPI DUP3 MLOAD DUP3 PUSH1 0x0 PUSH2 0x100 EXP DUP2 SLOAD DUP2 PUSH20 0xFFFFFFFFFFFFFFFFFFFFFFFFFFFFFFFFFFFFFFFF MUL NOT AND SWAP1 DUP4 PUSH20 0xFFFFFFFFFFFFFFFFFFFFFFFFFFFFFFFFFFFFFFFF AND MUL OR SWAP1 SSTORE POP SWAP2 PUSH1 0x20 ADD SWAP2 SWAP1 PUSH1 0x1 ADD SWAP1 PUSH2 0x63B JUMP JUMPDEST JUMPDEST POP SWAP1 POP PUSH2 0x6A1 SWAP2 SWAP1 PUSH2 0x6A5 JUMP JUMPDEST POP SWAP1 JUMP JUMPDEST JUMPDEST DUP1 DUP3 GT ISZERO PUSH2 0x6BE JUMPI PUSH1 0x0 DUP2 PUSH1 0x0 SWAP1 SSTORE POP PUSH1 0x1 ADD PUSH2 0x6A6 JUMP JUMPDEST POP SWAP1 JUMP JUMPDEST PUSH1 0x0 DUP2 SWAP1 POP SWAP2 SWAP1 POP JUMP JUMPDEST PUSH2 0x6D5 DUP2 PUSH2 0x6C2 JUMP JUMPDEST DUP3 MSTORE POP POP JUMP JUMPDEST PUSH1 0x0 PUSH1 0x20 DUP3 ADD SWAP1 POP PUSH2 0x6F0 PUSH1 0x0 DUP4 ADD DUP5 PUSH2 0x6CC JUMP JUMPDEST SWAP3 SWAP2 POP POP JUMP JUMPDEST PUSH1 0x0 DUP1 REVERT JUMPDEST PUSH1 0x0 PUSH20 0xFFFFFFFFFFFFFFFFFFFFFFFFFFFFFFFFFFFFFFFF DUP3 AND SWAP1 POP SWAP2 SWAP1 POP JUMP JUMPDEST PUSH1 0x0 PUSH2 0x726 DUP3 PUSH2 0x6FB JUMP JUMPDEST SWAP1 POP SWAP2 SWAP1 POP JUMP JUMPDEST PUSH2 0x736 DUP2 PUSH2 0x71B JUMP JUMPDEST DUP2 EQ PUSH2 0x741 JUMPI PUSH1 0x0 DUP1 REVERT JUMPDEST POP JUMP JUMPDEST PUSH1 0x0 DUP2 CALLDATALOAD SWAP1 POP PUSH2 0x753 DUP2 PUSH2 0x72D JUMP JUMPDEST SWAP3 SWAP2 POP POP JUMP JUMPDEST PUSH1 0x0 PUSH1 0x20 DUP3 DUP5 SUB SLT ISZERO PUSH2 0x76F JUMPI PUSH2 0x76E PUSH2 0x6F6 JUMP JUMPDEST JUMPDEST PUSH1 0x0 PUSH2 0x77D DUP5 DUP3 DUP6 ADD PUSH2 0x744 JUMP JUMPDEST SWAP2 POP POP SWAP3 SWAP2 POP POP JUMP JUMPDEST PUSH2 0x78F DUP2 PUSH2 0x71B JUMP JUMPDEST DUP3 MSTORE POP POP JUMP JUMPDEST PUSH1 0x0 PUSH1 0x20 DUP3 ADD SWAP1 POP PUSH2 0x7AA PUSH1 0x0 DUP4 ADD DUP5 PUSH2 0x786 JUMP JUMPDEST SWAP3 SWAP2 POP POP JUMP JUMPDEST PUSH2 0x7B9 DUP2 PUSH2 0x6C2 JUMP JUMPDEST DUP2 EQ PUSH2 0x7C4 JUMPI PUSH1 0x0 DUP1 REVERT JUMPDEST POP JUMP JUMPDEST PUSH1 0x0 DUP2 CALLDATALOAD SWAP1 POP PUSH2 0x7D6 DUP2 PUSH2 0x7B0 JUMP JUMPDEST SWAP3 SWAP2 POP POP JUMP JUMPDEST PUSH1 0x0 PUSH1 0x20 DUP3 DUP5 SUB SLT ISZERO PUSH2 0x7F2 JUMPI PUSH2 0x7F1 PUSH2 0x6F6 JUMP JUMPDEST JUMPDEST PUSH1 0x0 PUSH2 0x800 DUP5 DUP3 DUP6 ADD PUSH2 0x7C7 JUMP JUMPDEST SWAP2 POP POP SWAP3 SWAP2 POP POP JUMP JUMPDEST PUSH1 0x0 DUP3 DUP3 MSTORE PUSH1 0x20 DUP3 ADD SWAP1 POP SWAP3 SWAP2 POP POP JUMP JUMPDEST PUSH32 0x4E6F742074686520726967687420706572736F6E000000000000000000000000 PUSH1 0x0 DUP3 ADD MSTORE POP JUMP JUMPDEST PUSH1 0x0 PUSH2 0x850 PUSH1 0x14 DUP4 PUSH2 0x809 JUMP JUMPDEST SWAP2 POP PUSH2 0x85B DUP3 PUSH2 0x81A JUMP JUMPDEST PUSH1 0x20 DUP3 ADD SWAP1 POP SWAP2 SWAP1 POP JUMP JUMPDEST PUSH1 0x0 PUSH1 0x20 DUP3 ADD SWAP1 POP DUP2 DUP2 SUB PUSH1 0x0 DUP4 ADD MSTORE PUSH2 0x87F DUP2 PUSH2 0x843 JUMP JUMPDEST SWAP1 POP SWAP2 SWAP1 POP JUMP JUMPDEST PUSH32 0x4E487B7100000000000000000000000000000000000000000000000000000000 PUSH1 0x0 MSTORE PUSH1 0x32 PUSH1 0x4 MSTORE PUSH1 0x24 PUSH1 0x0 REVERT JUMPDEST PUSH32 0x4E487B7100000000000000000000000000000000000000000000000000000000 PUSH1 0x0 MSTORE PUSH1 0x11 PUSH1 0x4 MSTORE PUSH1 0x24 PUSH1 0x0 REVERT JUMPDEST PUSH1 0x0 PUSH2 0x8EF DUP3 PUSH2 0x6C2 JUMP JUMPDEST SWAP2 POP PUSH32 0xFFFFFFFFFFFFFFFFFFFFFFFFFFFFFFFFFFFFFFFFFFFFFFFFFFFFFFFFFFFFFFFF DUP3 EQ ISZERO PUSH2 0x922 JUMPI PUSH2 0x921 PUSH2 0x8B5 JUMP JUMPDEST JUMPDEST PUSH1 0x1 DUP3 ADD SWAP1 POP SWAP2 SWAP1 POP JUMP JUMPDEST PUSH32 0x4E487B7100000000000000000000000000000000000000000000000000000000 PUSH1 0x0 MSTORE PUSH1 0x41 PUSH1 0x4 MSTORE PUSH1 0x24 PUSH1 0x0 REVERT JUMPDEST PUSH1 0x0 DUP2 SWAP1 POP SWAP3 SWAP2 POP POP JUMP JUMPDEST POP JUMP JUMPDEST PUSH1 0x0 PUSH2 0x977 PUSH1 0x0 DUP4 PUSH2 0x95C JUMP JUMPDEST SWAP2 POP PUSH2 0x982 DUP3 PUSH2 0x967 JUMP JUMPDEST PUSH1 0x0 DUP3 ADD SWAP1 POP SWAP2 SWAP1 POP JUMP JUMPDEST PUSH1 0x0 PUSH2 0x998 DUP3 PUSH2 0x96A JUMP JUMPDEST SWAP2 POP DUP2 SWAP1 POP SWAP2 SWAP1 POP JUMP JUMPDEST PUSH32 0x4661696C65640000000000000000000000000000000000000000000000000000 PUSH1 0x0 DUP3 ADD MSTORE POP JUMP JUMPDEST PUSH1 0x0 PUSH2 0x9D8 PUSH1 0x6 DUP4 PUSH2 0x809 JUMP JUMPDEST SWAP2 POP PUSH2 0x9E3 DUP3 PUSH2 0x9A2 JUMP JUMPDEST PUSH1 0x20 DUP3 ADD SWAP1 POP SWAP2 SWAP1 POP JUMP JUMPDEST PUSH1 0x0 PUSH1 0x20 DUP3 ADD SWAP1 POP DUP2 DUP2 SUB PUSH1 0x0 DUP4 ADD MSTORE PUSH2 0xA07 DUP2 PUSH2 0x9CB JUMP JUMPDEST SWAP1 POP SWAP2 SWAP1 POP JUMP JUMPDEST PUSH2 0xA17 DUP2 PUSH2 0x6C2 JUMP JUMPDEST DUP3 MSTORE POP POP JUMP JUMPDEST PUSH1 0x0 PUSH1 0x20 DUP3 ADD SWAP1 POP PUSH2 0xA32 PUSH1 0x0 DUP4 ADD DUP5 PUSH2 0xA0E JUMP JUMPDEST SWAP3 SWAP2 POP POP JUMP JUMPDEST PUSH1 0x0 DUP2 MLOAD SWAP1 POP PUSH2 0xA47 DUP2 PUSH2 0x7B0 JUMP JUMPDEST SWAP3 SWAP2 POP POP JUMP JUMPDEST PUSH1 0x0 PUSH1 0x20 DUP3 DUP5 SUB SLT ISZERO PUSH2 0xA63 JUMPI PUSH2 0xA62 PUSH2 0x6F6 JUMP JUMPDEST JUMPDEST PUSH1 0x0 PUSH2 0xA71 DUP5 DUP3 DUP6 ADD PUSH2 0xA38 JUMP JUMPDEST SWAP2 POP POP SWAP3 SWAP2 POP POP JUMP JUMPDEST PUSH32 0x4E454544204D4F5245204D4F4E45590000000000000000000000000000000000 PUSH1 0x0 DUP3 ADD MSTORE POP JUMP JUMPDEST PUSH1 0x0 PUSH2 0xAB0 PUSH1 0xF DUP4 PUSH2 0x809 JUMP JUMPDEST SWAP2 POP PUSH2 0xABB DUP3 PUSH2 0xA7A JUMP JUMPDEST PUSH1 0x20 DUP3 ADD SWAP1 POP SWAP2 SWAP1 POP JUMP JUMPDEST PUSH1 0x0 PUSH1 0x20 DUP3 ADD SWAP1 POP DUP2 DUP2 SUB PUSH1 0x0 DUP4 ADD MSTORE PUSH2 0xADF DUP2 PUSH2 0xAA3 JUMP JUMPDEST SWAP1 POP SWAP2 SWAP1 POP JUMP INVALID LOG2 PUSH5 0x6970667358 0x22 SLT KECCAK256 PUSH30 0xE121285805E35B0F0E9BB9BF5D32495666078CAB26C5B6E225C10ADC5370 DUP10 PUSH5 0x736F6C6343 STOP ADDMOD ADDMOD STOP CALLER "
				},
				"gasEstimates": {
					"creation": {
						"codeDepositCost": "568800",
						"executionCost": "46972",
						"totalCost": "615772"
					},
					"external": {
						"addresstoamtfunded(address)": "2881",
						"f()": "2452",
						"fun()": "2451",
						"fund()": "infinite",
						"funders(uint256)": "5022",
						"minusd()": "2430",
						"owner()": "2514",
						"withdraw()": "infinite"
					}
				},
				"methodIdentifiers": {
					"addresstoamtfunded(address)": "5c7d08b5",
					"f()": "26121ff0",
					"fun()": "946644cd",
					"fund()": "b60d4288",
					"funders(uint256)": "dc0d3dff",
					"minusd()": "2578b86a",
					"owner()": "8da5cb5b",
					"withdraw()": "3ccfd60b"
				}
			},
			"storageLayout": {
				"storage": [
					{
						"astId": 54,
						"contract": "contracts/FundMe.sol:FundMe",
						"label": "fun",
						"offset": 0,
						"slot": "0",
						"type": "t_uint256"
					},
					{
						"astId": 59,
						"contract": "contracts/FundMe.sol:FundMe",
						"label": "minusd",
						"offset": 0,
						"slot": "1",
						"type": "t_uint256"
					},
					{
						"astId": 61,
						"contract": "contracts/FundMe.sol:FundMe",
						"label": "f",
						"offset": 0,
						"slot": "2",
						"type": "t_uint256"
					},
					{
						"astId": 65,
						"contract": "contracts/FundMe.sol:FundMe",
						"label": "addresstoamtfunded",
						"offset": 0,
						"slot": "3",
						"type": "t_mapping(t_address,t_uint256)"
					},
					{
						"astId": 68,
						"contract": "contracts/FundMe.sol:FundMe",
						"label": "funders",
						"offset": 0,
						"slot": "4",
						"type": "t_array(t_address)dyn_storage"
					},
					{
						"astId": 70,
						"contract": "contracts/FundMe.sol:FundMe",
						"label": "owner",
						"offset": 0,
						"slot": "5",
						"type": "t_address"
					}
				],
				"types": {
					"t_address": {
						"encoding": "inplace",
						"label": "address",
						"numberOfBytes": "20"
					},
					"t_array(t_address)dyn_storage": {
						"base": "t_address",
						"encoding": "dynamic_array",
						"label": "address[]",
						"numberOfBytes": "32"
					},
					"t_mapping(t_address,t_uint256)": {
						"encoding": "mapping",
						"key": "t_address",
						"label": "mapping(address => uint256)",
						"numberOfBytes": "32",
						"value": "t_uint256"
					},
					"t_uint256": {
						"encoding": "inplace",
						"label": "uint256",
						"numberOfBytes": "32"
					}
				}
			},
			"userdoc": {
				"kind": "user",
				"methods": {},
				"version": 1
			}
		}
	}
}